:020000040800F2
:1000000040040020191200082D0500082F050008E3
:1000100033050008370500083B0500080000000014
:100020000000000000000000000000003F05000884
:1000300041050008000000004305000845050008D0
:10004000331200083312000833120008331200087C
:10005000331200083312000833120008331200086C
:10006000331200083312000833120008331200085C
:10007000331200083312000833120008331200084C
:10008000331200083312000833120008331200083C
:10009000331200083312000833120008331200082C
:1000A000331200083312000833120008331200081C
:1000B000331200083312000833120008331200080C
:1000C00033120008331200083312000833120008FC
:1000D00033120008331200083312000833120008EC
:1000E00033120008331200083312000833120008DC
:1000F00033120008331200083312000833120008CC
:1001000033120008331200083312000833120008BB
:1001100033120008331200083312000833120008AB
:10012000331200083312000833120008331200089B
:10013000DFF80CD001F098F800480047AF04000841
:1001400040040020014604E0002000E0401C50284C
:10015000FCD30A00A1F10103D9B2F5D1704770B503
:100160000446E6480470002521E0E448007810F0D9
:10017000800F05D001220421E14800F0D8FB04E003
:1001800000220421DE4800F0D2FB01220221DC48DB
:1001900000F0CDFBD94800784006000ED749087022
:1001A00000220221D64800F0C2FB681CC5B2082D0F
:1001B000DBDB70BD10B5002423E0D048007840069A
:1001C000000ECE49087001220221CD4800F0AFFB9D
:1001D0000821CB4800F08DFB30B1C848007840F0D2
:1001E0000100C649087005E0C448007820F001000D
:1001F000C249087000220221C14800F098FB601C2F
:10020000C4B2082CD9DBBD48007810BD10B501225E
:100210001146BB4800F08BFB00220221B84800F0D9
:1002200086FB00221021B64800F081FB002220212D
:10023000B34800F07CFB00224021B14800F077FB7E
:1002400001220421AF4800F072FB00228021AC485B
:1002500000F06DFB00220221AA4800F068FB01209B
:10026000FFF770FF00220121A54800F060FB002489
:1002700005E0A549085DFFF772FF601CC4B20B2CB6
:10028000F7DB012211469E4800F051FB10BD2DE91D
:10029000F84305460E46174698469CA00068009015
:1002A0008DF800508DF801608DF802708DF8038094
:1002B00000228021924800F03AFB0122022191485D
:1002C00000F035FB0120FFF73DFF002201218C48A3
:1002D00000F02DFB2020FFF742FF002405E01DF871
:1002E0000400FFF73CFF601CC4B2042CF7DB0122C2
:1002F0001146834800F01BFB0120FFF723FF00227B
:1003000001217F4800F013FB2220FFF728FF002483
:1003100005E07F49085DFFF722FF601CC4B2042C92
:10032000F7DB01221146764800F001FB0122802113
:10033000734800F0FCFA0120FFF704FF002280213F
:100340006F4800F0F4FABDE8F88310B50120FFF71C
:10035000F9FE002202216B4800F0E9FA0122802117
:10036000674800F0E4FA6420FFF7ECFE00228021E9
:10037000634800F0DCFA00220121614800F0D7FA5E
:100380000120FFF7DFFE2420FFF7E9FE002405E04F
:10039000FFF710FF5F490855601CC4B2042CF7DB5F
:1003A00001221146564800F0C2FA0A20FFF7CAFEA1
:1003B00001228021524800F0BAFA10BD10B542F275
:1003C000107105E0024600BF1300A2F10102FBD14B
:1003D0000B00A1F10101F5D110BD1FB54FF416506E
:1003E00000900020ADF80400ADF80600ADF808005C
:1003F000ADF80C000C20ADF80A006946464800F044
:1004000048FD012240F22551434800F0DAFD012168
:10041000414800F0CAFD40213F4800F0B1FE1FBD39
:1004200008B503208DF802004FF40070ADF800000D
:1004300018208DF803006946314800F0C9F94FF4DF
:100440008060ADF8000004208DF8030069462C4858
:1004500000F0BEF9F720ADF8000010208DF8030081
:100460006946274800F0B4F90820ADF800000420E0
:100470008DF803006946224800F0AAF90620ADF87D
:10048000000010208DF8030069461E4800F0A0F916
:1004900008BD10B50121042000F04DFC0121082009
:1004A00000F049FC0121880300F045FC10BDFFF776
:1004B000F0FFFFF7B5FFFFF790FFFFF7A7FE0CE097
:1004C000002014490870FFF740FF1248017813A07C
:1004D00000F0DCFEC820FFF771FFF1E770B50446BD
:1004E0000D46E1B20C4800F0D0FD00BF0A4800887C
:1004F00010F0800FFAD0204670BD000013000020DD
:1005000000080140000C0140000000200808080815
:100510000B0000200F0000200038014054686520C7
:100520006B65792069732025640A0000704700BF5D
:10053000FEE700BFFEE700BFFEE700BFFEE7704733
:10054000704770477047000000210020674A12681A
:1005500042F48032654B1A6000BF644A126802F4AC
:100560000030491C10B9B1F5A06FF6D15F4A12688E
:1005700012F4003F01D0012000E00020012842D108
:100580005B4A126842F01002594B1A601A46126810
:1005900022F003021A601A46126842F002021A6040
:1005A000524A5268514B5A601A4652685A601A466B
:1005B000526842F480625A601A46526822F47C12F1
:1005C0005A601A46526842F4E8125A601A46126893
:1005D00042F080721A6000BF444A126812F0007F35
:1005E000FAD0424A526822F00302404B5A601A463F
:1005F000526842F002025A6000BF3C4A526802F060
:100600000C02082AF9D1704710B5FFF79DFF10BD05
:1006100010B53648006840F00100344908600846CB
:10062000406834490840314948600846006832490A
:1006300008402E4908600846006820F480200860C1
:100640000846406820F4FE0048604FF41F008860B0
:10065000FFF7DAFF4FF000602849086010BD10B5C1
:10066000002100200022214B5B6803F00C0121B126
:10067000042906D0082928D107E0214B214C23600A
:1006800027E01F4B1F4C236023E0184B5B6803F4EB
:100690007010164B5B6803F48032022303EB90402A
:1006A00022B9194B4343174C23600DE00F4B5B6895
:1006B00013F4003F04D0144B4343124C236003E077
:1006C0000F4B43430F4C236003E00D4B0D4C236055
:1006D00000BF00BF054B5B68C3F303130B4CE15C29
:1006E000084B1B68CB40074C236010BD0010024034
:1006F000002002400000FFF8FFFFF6FE08ED00E0DA
:1007000000127A001400002000093D0018000020AB
:1007100010B50446CA48844208D10121042000F0E3
:1007200024FB0021042000F020FB46E0C548844261
:1007300008D10121082000F018FB0021082000F05A
:1007400014FB3AE0C048844208D10121102000F097
:100750000CFB0021102000F008FB2EE0BB48844277
:1007600008D10121202000F000FB0021202000F012
:10077000FCFA22E0B648844208D10121402000F072
:10078000F4FA0021402000F0F0FA16E0B14884426B
:1007900008D10121802000F0E8FA0021802000F03B
:1007A000E4FA0AE0AC48844207D10121801500F048
:1007B000DCFA0021A01500F0D8FA10BD10B5012117
:1007C000084600F0D2FA0021012000F0CEFA10BD58
:1007D0002DE9F041024600250026002000230024D8
:1007E000002791F803C00CF00F0591F803C01CF02E
:1007F000100F03D091F802C04CEA0505B1F800C013
:100800001CF0FF0F31D0146800202BE04FF0010CDA
:100810000CFA00F3B1F800C00CEA03069E4220D1A6
:1008200083004FF00F0C0CFA03F7BC4305FA03FCEE
:100830004CEA040491F803C0BCF1280F06D14FF034
:10084000010C0CFA00FCC2F814C00AE091F803C0D5
:10085000BCF1480F05D14FF0010C0CFA00FCC2F8B6
:1008600010C0401C0828D1D31460B1F800C0BCF1FE
:10087000FF0F34DD546800202EE000F1080C4FF02B
:10088000010808FA0CF3B1F800C00CEA03069E4216
:1008900021D183004FF00F0C0CFA03F7BC4305FA8B
:1008A00003FC4CEA040491F803C0BCF1280F05D105
:1008B00000F1080C08FA0CF8C2F8148091F803C093
:1008C000BCF1480F07D100F1080C4FF0010808FAFD
:1008D0000CF8C2F81080401C0828CED35460BDE844
:1008E000F0814FF6FF710180022181700421C170F7
:1008F00070470246002093680B4201D0012000E0BF
:10090000002070470146886880B270470246002088
:10091000D3680B4201D0012000E00020704701465F
:10092000C86880B2704701617047416170470AB181
:10093000016100E041617047C16070474FF480324F
:100940000A438261816182618269826970470246DD
:100950000020424B18684FF68073184040EA02109E
:1009600008433E4B186070473D49C8617047F0B579
:100970000A46002300240021002500F00046B6F1BD
:10098000004F02D1354EF16901E0344E7168C0F379
:10099000034583B200F44016B6F5401F08D121F09C
:1009A00070612E4E766826F070662C4F7E6012E0E5
:1009B00000F48016B6F5801F06D1032606FA05F46A
:1009C000A14341F0706106E0460D360103FA06F6D8
:1009D000B14341F0706122B1460D360103FA06F6CB
:1009E000314300F00046B6F1004F02D11B4EF161D9
:1009F00001E01A4E7160F0BD30B500228B071C0F6C
:100A00000F2303FA04F2154B08338C1053F82430EB
:100A10009343124C08348D1044F8253023468C1033
:100A200053F824308C07240F00FA04F423430B4CB2
:100A300008348D1044F8253030BD0A4908607047ED
:100A400000080140000C014000100140001401406A
:100A500000180140001C014000200140000001403E
:100A600000002042DC002042DB48006840F001002A
:100A7000D949086008464068D8490840D6494860C6
:100A800008460068D6490840D3490860084600680F
:100A900020F4802008600846406820F4FE0048608A
:100AA0004FF41F0088607047CB49096821F48031FA
:100AB000C94A11601146096821F480211160B0F51E
:100AC000803F03D0B0F5802F0ED106E0C2490968FF
:100AD00041F48031C04A116007E0BF49096841F420
:100AE000A021BD4A116000E000BF00BF704710B5F3
:100AF00001460022002300204A11012A02D1B64CEF
:100B0000236806E0022A02D1B34C236A01E0B24C0A
:100B1000636A01F01F02012494401C4201D00120AD
:100B200000E0002010BD70B500240025002600BFA5
:100B30003120FFF7DCFF0646641CB4F5A06F01D03E
:100B4000002EF5D03120FFF7D2FF08B1012500E0DB
:100B50000025284670BD014600209F4A106820F0FD
:100B6000F80040EAC100106070479E490860704775
:100B700002460020984B586820F47C1042EA01039A
:100B80001843954B58607047964908667047014670
:100B90000020914A506820F00300084350607047DD
:100BA0008D48406800F00C007047014600208A4ADA
:100BB000506820F0F0000843506070470146002064
:100BC000854A506820F4E060084350607047014651
:100BD0000020814A506820F4605040EAC100506013
:100BE000704729B17C4A527A02437B4B5A7206E025
:100BF000794A527AC343DBB21A40774B5A72704734
:100C000079490860704701460020734A506820F413
:100C100040400843506070470021744A11706E4A8A
:100C200082F82010012802D0042808D103E0012115
:100C30006E4A117004E005216C4A117000E000BF9B
:100C400000BF70476A49086070476349096A0143F9
:100C5000614A1162704767490860704730B50021EA
:100C60000022002400235C4D6D6805F00C0121B1C9
:100C7000042905D0082923D105E05F4D056022E055
:100C80005D4D05601FE0544D6D6805F47012524DC6
:100C90006D6805F48034022505EB92421CB9574D6E
:100CA000554305600BE04C4D6D6815F4003F03D0D3
:100CB000524D5543056002E04F4D5543056002E03B
:100CC0004D4D056000BF00BF434D6D6805F0F0015C
:100CD00009094B4D6B5C0568DD4045603E4D6D6814
:100CE00005F4E061090A464D6B5C4568DD408560AE
:100CF000394D6D6805F46051C90A414D6B5C45681A
:100D0000DD40C560344D6D6805F44041890B3D4DB3
:100D10006B5CC568B5FBF3F5056130BD29B12E4AA2
:100D2000526902432C4B5A6104E02B4A52698243B8
:100D3000294B5A61704729B1274A92690243264BD1
:100D40009A6104E0244A92698243234B9A61704776
:100D500029B1214AD26902431F4BDA6104E01E4ADD
:100D6000D26982431C4BDA61704729B11A4AD268B2
:100D70000243194BDA6004E0174AD2688243164BEB
:100D8000DA60704729B1144A12690243124B1A61A2
:100D900004E0114A126982430F4B1A6170471A49E5
:100DA000086070470F49C86470470B49C8717047A5
:100DB0000948406A40F08070074948627047014620
:100DC0000020054A92680A4201D0012000E000207C
:100DD0007047014988727047001002400000FFF818
:100DE000FFFFF6FE00004242D800424220100240BF
:100DF000800442423C04424200127A0000093D0055
:100E000028000020380000204004424210B504466B
:100E1000FC48844209D101218803FFF7A6FF002185
:100E20004FF48040FFF7A1FF32E0F748844209D138
:100E300001214804FFF7A6FF00214FF40030FFF71F
:100E4000A1FF25E0F148844209D101218804FFF780
:100E500099FF00214FF48020FFF794FF18E0EC4841
:100E6000844209D10121C804FFF78CFF00214FF40F
:100E70000020FFF787FF0BE0E648844208D10121FC
:100E80000805FFF77FFF00214FF48010FFF77AFF7E
:100E900010BD2DE9F04786B005460E460024A24657
:100EA00000BFA1460027B08900B100BF2F462C8AA1
:100EB0004CF6FF700440F08804432C82AC894EF657
:100EC000F3100440B0883189084371890843044312
:100ED000AC81AC8A4FF6FF400440B0890443AC8239
:100EE00001A8FFF7BBFEC748874202D1DDF810A07A
:100EF00001E0DDF80CA0A88910F4004F08D00AEB3F
:100F0000CA0000EB0A1031684900B0FBF1F807E0B5
:100F10000AEBCA0000EB0A1031688900B0FBF1F857
:100F20006420B8FBF0F004012009642101FB108962
:100F3000A88910F4004F08D0322000EBC900B0FBA4
:100F4000F1F000F00700044308E0322000EB091044
:100F50006421B0FBF1F000F00F0004432C8106B0D7
:100F6000BDE8F0874FF41651016000218180C180F7
:100F700001810C21418100218181704710B5024619
:100F80000020108A4FF2FF0318400B884C8823433F
:100F90008C882343CC8823431843108210BD002142
:100FA000018041808180C180704721B1828942F4F3
:100FB0000052828104E082894DF6FF731A408281DB
:100FC0007047F0B503460024002600250020A1F557
:100FD00010676A3F00D100BF1846C1F3421401F008
:100FE0001F06012707FA06F5012C01D10C3004E099
:100FF000022C01D1103000E014301AB107682F43E1
:10100000076002E00768AF430760F0BD10B51AB192
:10101000838A0B43838204E0838ACC43A4B22340B7
:10102000838210BD028A4FF6F0731A400282028A50
:101030000A430282704782894FF2FF731A4082810D
:1010400082890A438281704721B1828942F002027B
:10105000828104E082894FF6FD731A4082817047D5
:10106000028A4FF6DF731A400282028A0A43028222
:10107000704721B1028A42F48042028204E0028A6F
:101080004BF6FF731A4002827047C1F30802828058
:10109000704701468888C0F308007047818941F095
:1010A000010181817047028BD2B20283028B42EA36
:1010B000012202837047028B02F47F420283028B7B
:1010C0000A430283704721B1828A42F02002828261
:1010D00004E0828A4FF6DF731A408282704721B1A2
:1010E000828A42F01002828204E0828A4FF6EF7315
:1010F0001A408282704721B1828A42F008028282BD
:1011000004E0828A4FF6F7731A408282704721B159
:10111000828942F40042828103E08289C2F30E0296
:101120008281704721B1828A42F40062828204E0A7
:10113000828A4FF2FF731A4082827047828A4FF68A
:10114000FB731A408282828A0A438282704721B1ED
:10115000828A42F00202828204E0828A4FF6FD73A4
:101160001A408282704702460020B1F5007F00D10C
:1011700000BF13880B4201D0012000E0002070471F
:1011800001F40072B2F5007F00D100BFCA430280B3
:10119000704770B502460024002300250020A1F509
:1011A00010666A3E00D100BFC1F3421501F01F0373
:1011B000012606FA03F3012D02D19689334006E099
:1011C000022D02D1168A334001E0968A33400C1278
:1011D000012606FA04F41688344013B10CB101203C
:1011E00000E0002070BD10B500220023A1F51064BE
:1011F0006A3C00D100BF0A1201249440A3B2DC4330
:10120000048010BD00380140004400400048004008
:10121000004C004000500040064880470648004708
:10122000FEE7FEE7FEE7FEE7FEE7FEE7FEE7FEE796
:10123000FEE7FEE7110600083101000830B50B4655
:10124000014600202022012409E021FA02F59D42F6
:1012500005D303FA02F5491B04FA02F52844151ECA
:10126000A2F10102F1DC30BD064C074D06E0E0685A
:1012700040F0010394E8070098471034AC42F6D3DD
:10128000FEF75AFF20140008401400080FB4054B65
:1012900010B503A9044A029800F018F810BC5DF8D4
:1012A00014FB0000DD0400083C00002002E008C838
:1012B000121F08C1002AFAD170477047002001E0D0
:1012C00001C1121F002AFBD1704700002DE9FF4F1A
:1012D00089B004469B46002597E0252832D1002797
:1012E000641C4E4AB84601212378203B01FA03F0E2
:1012F000104202D00743641CF6E720782E2819D14B
:1013000014F8010F47F004072A280ED06FF02F02BF
:101310002078A0F1300109290CD808EB880102EBF4
:10132000410100EB0108641CF2E70A98641C50F8C4
:10133000048B0A902078F0B3642808D0692806D07E
:1013400075281FD05A460B9990476D1C5CE00A998E
:101350004FF00A0901C90A91002804DAC0F100001F
:101360004FF02D0102E0390504D52B218DF8201016
:10137000012104E0F90701D02021F7E700218A4686
:1013800008AE0CE00A994FF00A0901C90A91F5E785
:101390004946FFF753FF01F1300106F8011D00280F
:1013A000F6D1ADEB060000F12009780701D44FF02B
:1013B0000108002000E02CE041464A46C84500DD17
:1013C000881A8046002706E008A85A46C05D0B9997
:1013D00090476D1C7F1C5745F6DB04E030205A46D1
:1013E0000B9990476D1CB8F10001A8F10108F5DCDC
:1013F00005E016F8010B5A460B9990476D1CB9F1A0
:101400000001A9F10109F4DC641C207800287FF4B4
:1014100064AF0DB02846BDE8F08F00000928010038
:10142000401400080000002040000000AC1200083A
:10143000801400084000002000040000BC120008D6
:10144000004C0C440404112233445811223344004C
:101450000000000000A24A0400000000000000009C
:10146000010203040607080900000000010203044A
:101470000102030406070809020406080000000030
:0400000508001219C4
:00000001FF
