:020000040800F2
:100000000005002025350008A1150008A3150008EB
:10001000A7150008AB150008AF1500080000000088
:10002000000000000000000000000000B315000800
:10003000B515000800000000B7150008B915000844
:100040003F3500083F3500083F3500083F350008C0
:100050003F3500083F3500083F3500083F350008B0
:100060003F3500083F3500083F3500083F350008A0
:100070003F3500083F3500083F3500083F35000890
:100080003F3500083F3500083F3500083F35000880
:100090003F3500083F3500083F3500083F35000870
:1000A0003F3500083F3500083F3500083F35000860
:1000B000230300083F3500083F3500083F3500089E
:1000C0003F3500083F3500083F3500083F35000840
:1000D0003F3500083F3500083F3500083F35000830
:1000E0003F3500083F3500083F3500083F35000820
:1000F0003F3500083F3500083F3500083F35000810
:100100003F3500083F3500083F3500083F350008FF
:100110003F3500083F3500083F3500083F350008EF
:100120003F3500083F3500083F3500083F350008DF
:10013000DFF80CD003F024FE00480047A5020008B9
:100140000005002006E042F2107100BF0A00A1F194
:100150000101FBD10200A0F10100F4D170471FB5ED
:100160004FF4165000900020ADF80400ADF80600E2
:10017000ADF80800ADF80C000C20ADF80A00694697
:10018000FD4803F00CF80121FB4803F094F84021EE
:10019000F94803F07BF91FBD08B51C208DF800005D
:1001A00000208DF801008DF8020001208DF8030079
:1001B000684601F0ECFA08BD0EB540F2CF70ADF81C
:1001C000040040F2CF20ADF800000020ADF806009A
:1001D000ADF8020069464FF0804002F099F9012223
:1001E0001146900702F0E9FC0121880702F0BFFCEC
:1001F0000EBD1FB50020ADF804004FF48060ADF8CF
:100200000A000001ADF80C004CF250300090694635
:10021000DA4801F0F8FC0121D84801F072FD012113
:10022000D64801F0AAFD1FBD08B503208DF80200D5
:100230004FF40070ADF8000018208DF803006946F7
:10024000CF4801F07BFB4FF48060ADF80000042044
:100250008DF803006946CA4801F070FB4FF4406016
:10026000ADF800001C208DF803006946C54801F078
:1002700065FB08BD10B501F005FA0121042002F06C
:1002800008F80121082002F004F80121880302F097
:1002900000F80121880502F009F80121084602F062
:1002A00005F810BD1CB54FF4FA70FFF74BFFFFF7D0
:1002B000E1FFFFF7B9FFFFF79CFFFFF77DFFFFF7B7
:1002C0006BFFFFF74CFFAD4800F0C2FA4FF4FA7035
:1002D000FFF738FF14E0C820FFF734FFAA48006892
:1002E00003F0EEFA04460D46A848006803F0E8FA69
:1002F000064602460B46A6A0CDE9004503F084FD64
:10030000E9E770B504460D46C4F308019A4803F0C6
:1003100042F800BF9848008810F0800FFAD02046BD
:1003200070BD2DE9FC470121880702F0F1FE3B2159
:10033000924800F0A9FA9D4908603D218F4800F0DD
:10034000A3FA9B4908603F218C4800F09DFA994927
:1003500008604321894800F097FA974908604521D1
:10036000864800F091FA954908604721834800F0DB
:100370008BFA93490860934800780A2878DD914801
:100380000078401C8F4908708F48007810B1012810
:100390006CD135E08748006803F084FA044684484D
:1003A000006803F07FFA05468048006803F07AFA97
:1003B00006468348006803F075FA07467F480068E0
:1003C00003F070FA80467C48006803F06BFA8146BF
:1003D00033463A464146CDE9005400F03FFE7B48A3
:1003E00001687B48006803F0AFF8794908607948F4
:1003F00001687948006803F0A7F87749086035E09C
:100400006C48006803F04EFA04466948006803F03F
:1004100049FA05466548006803F044FA064668480C
:10042000006803F03FFA07466448006803F03AFAB0
:1004300080466148006803F035FA814633463A4603
:100440004146CDE9005400F08EFC644801686048E4
:10045000006803F079F85E490860614801685E4809
:10046000006803F071F85C49086000BF37E1FFE7FE
:10047000544800780A287ED152480078401C5149DF
:10048000087058495248006803F0ECF85049086079
:1004900054495148006803F0E5F84F4908604A485C
:1004A000007810B1012835D135E04248006803F0EA
:1004B000F9F904463E48006803F0F4F905463B4864
:1004C000006803F0EFF906463D48006803F0EAF9DA
:1004D00007463A48006803F0E5F980463648006868
:1004E00003F0E0F9814633463A464146CDE90054EF
:1004F00000F0B4FD364801683448006803F076F82F
:1005000022490860344801683248006803F06EF8F8
:100510001D4908606FE02748006803F0C3F90446EE
:100520002348006803F0BEF905462048006803F040
:10053000B9F906462248006803F0B4F907461F4897
:10054000006803F0AFF980461B48006803F0AAF981
:10055000814633463A464146CDE9005400F003FC5B
:100560001B4801681D48006803F040F8074908600F
:100570001948016838E03FE0003801400058004069
:1005800000080140000C0140040000200000002091
:10059000583A2025322E3266202D2D2D2D2D2D2D31
:1005A00020593A2025322E32660A0000140000201D
:1005B000180000201C000020200000202400002043
:1005C000280000201100002010000020B8000020AA
:1005D00008000020BC0000200C000020700000205B
:1005E00074000020000020413E48006802F0FEFF39
:1005F0003D49086000BF72E03C48007810B1012816
:100600006CD135E03A48006803F04CF904463948AB
:10061000006803F047F905463748006803F042F9DF
:1006200006463648006803F03DF90746344800683E
:1006300003F038F980463348006803F033F9814607
:1006400033463A464146CDE9005400F007FD2E48B6
:1006500001682E48006802F0C9FF2D4908602D4846
:1006600001682D48006802F0C1FF1F49086035E0AD
:100670001F48006803F016F904461E48006803F09E
:1006800011F905461C48006803F00CF906461B48A2
:10069000006803F007F907461948006803F002F9FB
:1006A00080461848006803F0FDF8814633463A4614
:1006B0004146CDE9005400F056FB13480168174845
:1006C000006802F093FF124908601248016805486B
:1006D000006802F08BFF0449086000BF00BFBDE85E
:1006E000FC8700007400002004000020100000209F
:1006F0001C0000201800002014000020280000200A
:10070000240000202000002008000020B800002065
:10071000000000200C000020BC0000207000002021
:1007200070B505460E4614460121284601F00DFB22
:1007300000BF5F49284601F0E7FB0028F9D00022FE
:10074000D021284601F05AFB00BF5A49284601F043
:10075000DBFB0028F9D03146574801F049FB00BFC8
:100760005449891C284601F0CFFB0028F8D02146C7
:10077000514801F03DFB00BF4E49891C284601F05D
:10078000C3FB0028F8D00121284601F0EAFA70BD29
:1007900070B504460D4600BF4FF40031204601F00D
:1007A000D5FB0028F8D10121204601F0CEFA00BF88
:1007B0003F49204601F0A8FB0028F9D00022D021B3
:1007C000204601F01BFB00BF3A49204601F09CFB8C
:1007D0000028F9D00121204601F093FA294620464D
:1007E00001F006FB00BF3349891C204601F08CFB59
:1007F0000028F8D00121204601F0A7FA00BF2C49BB
:10080000204601F081FB0028F9D00122D0212046AA
:1008100001F0F4FA00BF2649491C204601F074FBA0
:100820000028F8D00021204601F0A7FA0121204637
:1008300001F097FA00BF1E493F31204601F064FBEA
:100840000028F8D0204601F0D5FA0646304670BDA3
:1008500010B5044600226B212046FFF761FF0722F6
:1008600019212046FFF75CFF06221A212046FFF7D8
:1008700057FF18221B212046FFF752FF01221C219F
:100880002046FFF74DFF10BD2DE9F04105460C460F
:1008900021462846FFF77CFF0646601CC1B2284669
:1008A000FFF776FF074607EB0620BDE8F081000062
:1008B0000100030082000700005800402DE9F041CC
:1008C00005460C46FF480168204602F08FFE0746A9
:1008D000FD480168384602F08FFE0646FB48016875
:1008E000304602F031FEF9490860F9484168F9489C
:1008F000006802F07BFE0646F5488168304602F04B
:1009000075FEF5490860F248C06880F00040486014
:10091000EF48C06880F000408860F0480068C86018
:100920000868E949096802F067FE0646E848016878
:10093000304602F009FEE6490860E7494868E249A6
:10094000096802F059FE0646E1484168304602F067
:10095000FBFDDF494860E0498868DB49096802F02F
:100960004BFE0646DA488168304602F0EDFDD84974
:100970008860D949C868D449096802F03DFE064636
:10098000D348C168304602F0DFFDD149C860CF4886
:100990000168284602F02AFED1490860D148007853
:1009A00002F089FF0646CA480168304602F024FE7C
:1009B000CD490860CB48007802F07DFF0646C44868
:1009C0008168304602F018FEC8490860C5480078C2
:1009D00002F071FF0746C4480168384602F00CFE79
:1009E0000646C3480168304602F0AEFDC1490860C2
:1009F00008460168BC48006802F034FEBE49086041
:100A0000BC480168B948006802F02CFEBB49086088
:100A1000B5480068BA490860B248007802F04BFF58
:100A20000646AB484168304602F0E6FDB54908602D
:100A3000B3480168B048006802F0DEFD0646A448ED
:100A40000168304602F0D5FDA1490860AD48016853
:100A5000A948006802F0D0FD06469D48416830462E
:100A600002F0C7FD9A494860A5480168A34800689C
:100A700002F0C2FD064696488168304602F0B9FD94
:100A8000934988609F4801689C48006802F0B4FD63
:100A900006468F48C168304602F0ABFD8C49C860FD
:100AA0008F4801689448006802F0A6FD0646874812
:100AB0000168304602F048FD8449086088480168B2
:100AC0008E48006802F098FD06467E480168304670
:100AD00002F03AFD7B49086008460168204602F0B2
:100AE00085FD89490860BDE8F0812DE9F0410546A2
:100AF0000C4674480168204602F078FD07467248AB
:100B00000168384602F078FD0646804801683046A4
:100B100002F01AFD7D4908606D4841686D48006823
:100B200002F064FD06466A488168304602F05EFDC8
:100B3000694908606648C06880F0004048606448C1
:100B4000C06880F00040886064480068C860086839
:100B50005D49096802F050FD06465D48016830466F
:100B600002F0F2FC5A4908605B4948685649096836
:100B700002F042FD064656484168304602F0E4FC69
:100B800053494860544988684F49096802F034FD68
:100B900006464F488168304602F0D6FC4C498860D2
:100BA0004D49C8684849096802F026FD064648488C
:100BB000C168304602F0C8FC4549C8605348016826
:100BC000284602F013FD464908604648007802F0C6
:100BD00072FE06463E480168304602F00DFD42496D
:100BE00008604048007802F066FE06463848816892
:100BF000304602F001FD3D4908603A48007802F0B5
:100C00005AFE074638480168384602F0F5FC0646A9
:100C100037480168304602F097FC364908600846BC
:100C200001683148006802F01DFD33490860314811
:100C300001682E48006802F015FD304908602A4816
:100C400000682F4908602748007802F034FE064605
:100C50001F484168304602F0CFFC2A490860284806
:100C600001682548006802F0C7FC0646184801687C
:100C7000304602F0BEFC16490860224801681E4852
:100C8000006802F0B9FC064611484168304602F09F
:100C9000B0FC0F4948601A4801681848006802F023
:100CA000ABFC06460A488168304602F0A2FC0849BF
:100CB0008860144801681148006802F09DFC0646EF
:100CC000034825E078000020380000207000002054
:100CD000400000202C000020F00000203000002008
:100CE0007C0000203C0000208000002084000020C8
:100CF00034000020880000208C000020900000209C
:100D00009400002098000020600000207400002063
:100D1000C168304602F06DFCC049C860C048016837
:100D2000C048006802F068FC0646BF4801683046CB
:100D300002F00AFCBC490860B9480168BB48006879
:100D400002F05AFC0646BA480168304602F0FCFB45
:100D5000B749086008460168204602F047FCB549DB
:100D60000860BDE8F0812DE9FF4F89B080468946D3
:100D700015469A46B049504602F0D4FD06D24FF0CF
:100D80008D41504602F06EFC06460EE0AB495046DF
:100D900002F02CFC4FF08D41079002F063FC83467B
:100DA0004FF07E5102F025FC0646A349169802F04A
:100DB000B9FD06D24FF08D41169802F053FC07465C
:100DC0000EE09E49169802F011FC4FF08D410790FD
:100DD00002F048FC83464FF07E5102F00AFC0746C1
:100DE0009549179802F09EFD06D24FF08D41179855
:100DF00002F038FC044609E09049179802F0F6FB2F
:100E000083464FF08D4102F02DFC044621463846C2
:100E100002F028FC834602F053FDCDE9000103F007
:100E200009FE0022864BCDE9020102F05BFC854AF7
:100E3000854BCDE9040102F0C6FCCDE9060102F0C4
:100E400055FD824908602146304602F00BFC83467E
:100E500002F036FDCDE9000103F0ECFD0022784BF5
:100E6000CDE9020102F03EFC764A774BCDE9040160
:100E700002F0A9FCCDE9060102F038FD74490860D2
:100E80006D49504602F04EFD03D27148006870492A
:100E900008606949504602F04FFD05D26C48006871
:100EA00080F000406A4908606349169802F03AFDF4
:100EB00003D266480068654908605F49169802F0E9
:100EC0003BFD05D26148006880F000405F49086042
:100ED0005949179802F026FD5749179802F02CFD42
:100EE0004FF08E41404602F01DFD10D2404602F008
:100EF000E7FC4FF06632574BCDE9040102F063FC8A
:100F000081F00041CDE9060102F0F0FC80464FF08F
:100F10008E41404602F010FD12D24F49404602F089
:100F200068FB834602F0CCFC4FF06632494BCDE9BA
:100F3000040102F048FCCDE9060102F0D7FC80462E
:100F40004FF08E41484602F0EDFC10D2484602F0C8
:100F5000B7FC4FF066323F4BCDE9040102F033FCA1
:100F600081F00041CDE9060102F0C0FC81464FF05E
:100F70008E41484602F0E0FC12D24946364802F063
:100F800035FB834602F09CFC4FF06632314BCDE9D5
:100F9000040102F018FCCDE9060102F0A7FC81462D
:100FA0004FF08E41284602F0BDFC10D2284602F0D8
:100FB00087FC4FF06632274BCDE9040102F003FCB9
:100FC00081F00041CDE9060102F090FC05464FF0AA
:100FD0008E41284602F0B0FC12D229461E4802F08B
:100FE00005FB834602F06CFC4FF06632194BCDE9ED
:100FF000040102F0E8FBCDE9060102F077FC0546AA
:10100000414612480068FFF770FD494610480068E5
:10101000FFF754FC0DB0BDE8F08F00004000002049
:101020007C0000208C000020740000209000002034
:10103000780000205C00002000F8FF4600004047D8
:10104000008066401F85EB51B81E094068000020F3
:101050006C0000206666304000FF7F470FB595B0FA
:101060001B99084602F0C8FA08901A99084602F03F
:10107000C3FA06901899084602F0BEFA0590069940
:1010800002F062FA0790089902F05EFA099002F005
:1010900017FCCDE90A0103F09FFECDE90C0102F037
:1010A00025FC14901499189802F0DCFA1890149901
:1010B0001A9802F0D7FA1A9014991B9802F0D2FAF3
:1010C0001B90FF480168FF48006802F095FA0C90F9
:1010D000FD480168FD48006802F08EFA0B900C99FB
:1010E00002F084FA4FF080410D9002F085FA1390DF
:1010F000F5480168F248006802F07EFA0C90F34867
:101100000168F048006802F077FA0B900C9902F041
:101110001BFA4FF080410D9002F06EFA1290EA48EF
:101120000168006802F068FA0D90E54801680068FF
:1011300002F062FA0B90E5480168006802F05CFA80
:101140000990E0480168006802F056FA0890099991
:1011500002F04CFA0A900B9902F048FA0C900D99A3
:1011600002F0F2F9119012991B9802F045FA0D90D5
:1011700011991A9802F040FA0C900D9902F036FA83
:1011800010901199189802F037FA0D9013991B9846
:1011900002F032FA0C900D9902F028FA0F90139990
:1011A0001A9802F029FA0D901299189802F024FA70
:1011B0000C900D9902F01AFA0E90C549109802F0A1
:1011C0001BFA0D90C34801680D9802F0BDF9C149A2
:1011D0000860BF490F9802F00FFA0D90BE480168F1
:1011E0000D9802F0B1F9BC490860B9490E9802F0B7
:1011F00003FA0D90B94801680D9802F0A5F9B749B6
:101200000860B748109902F0F7F90C90B1480168EE
:101210000C9802F099F90D90159902F095F9159036
:10122000AF480F9902F0E8F90C90AB4801680C98B0
:1012300002F08AF90D90169902F086F91690A848E6
:101240000E9902F0D9F90C90A44801680C9802F0AC
:101250007BF90D90179902F077F917909A48179932
:10126000006802F0C9F90A9095481699006802F0E2
:10127000C3F908909548006880F0004006901599E1
:1012800002F0BAF90790089902F0B0F909900A99AA
:1012900002F0ACF993490B9002F0AEF94FF07C519B
:1012A0000C9002F0A9F90D90864801680D9802F0A3
:1012B0004BF98449086084481699006802F09CF94B
:1012C0000A907F481799006802F096F908907D48C7
:1012D0000168159802F090F90790089902F034F926
:1012E00009900A9902F082F97E490B9002F084F984
:1012F0004FF07C510C9002F07FF90D90734801681B
:101300000D9802F021F9714908606F48016815983D
:1013100002F072F90A906D481799006802F06CF9B2
:10132000089068481699006802F066F907900899D5
:1013300002F05CF909900A9902F006F969490B90EC
:1013400002F05AF94FF07C510C9002F055F90D90D3
:101350005B4801680D9802F0F7F8594908600846A3
:101360000168159802F048F90A90584816990068E3
:1013700002F042F9089053481799006802F03CF9CE
:101380000790089902F0E0F809900A9902F02EF906
:1013900054490B9002F030F94FF07C510C9002F060
:1013A0002BF90D90484801680D9802F0CDF8464998
:1013B000086008460168006802F01EF9089040487D
:1013C0000168006802F018F906904048016800685A
:1013D00002F012F904903B480168006802F00CF931
:1013E0000390049902F0B0F80590069902F0ACF869
:1013F0000790089902F0A8F8099002F061FACDE987
:101400000A0103F0E9FCCDE90C0102F06FFA149037
:101410002C481499006802F025F92A4908602B48E5
:101420001499006802F01EF92849086024481499AC
:10143000006802F017F922490860234814990068EF
:1014400002F010F920490860084601681F4800684A
:1014500002F0D2F805901A4801681A48006802F0B4
:10146000CBF80490059902F0C1F84FF08041069046
:1014700002F0C2F8079002F023FACDE9080103F068
:1014800099F94FF0C042184BCDE90A0102F02AF950
:10149000CDE90C0102F02AFA1449086008480168F5
:1014A0004FF0804002F0A8F80290054801680298C9
:1014B00002F0A2F80490054801684FF0804017E060
:1014C000A40000209C000020A8000020A000002014
:1014D0006F12833AAC000020B0000020B40000205E
:1014E000CDCC4C3F6F12033C66A64C40B8000020A8
:1014F00002F082F8019024480168019802F07CF81B
:101500004FF07E51029002F074F80390049902F0BB
:101510006DF8059002F0D4F9CDE908011B48016887
:101520004FF0804002F068F8029017480168029876
:1015300002F062F80490164801684FF0804002F013
:101540005BF8029013480168029802F055F8039086
:10155000049901F0F9FF059002F0B2F9CDE9060116
:10156000DDE9082303F078FB4FF066320A4BCDE942
:101570000A0102F0B7F8CDE90C0102F0B7F907490A
:10158000086019B000BD0000A00000209C000020F1
:10159000A4000020A800002066A64C40BC0000204B
:1015A000704700BFFEE700BFFEE700BFFEE700BFD9
:1015B000FEE7704770477047704700000021002029
:1015C000674A126842F48032654B1A6000BF644A71
:1015D000126802F40030491C10B9B1F5A06FF6D1C1
:1015E0005F4A126812F4003F01D0012000E00020A1
:1015F000012842D15B4A126842F01002594B1A602E
:101600001A46126822F003021A601A46126842F063
:1016100002021A60524A5268514B5A601A46526886
:101620005A601A46526842F480625A601A465268FA
:1016300022F47C125A601A46526842F4E8125A6048
:101640001A46126842F080721A6000BF444A12685B
:1016500012F0007FFAD0424A526822F00302404B57
:101660005A601A46526842F002025A6000BF3C4A71
:10167000526802F00C02082AF9D1704710B5FFF742
:101680009DFF10BD10B53648006840F00100344998
:1016900008600846406834490840314948600846B7
:1016A0000068324908402E4908600846006820F466
:1016B000802008600846406820F4FE0048604FF42F
:1016C0001F008860FFF7DAFF4FF0006028490860CC
:1016D00010BD10B5002100200022214B5B6803F0F3
:1016E0000C0121B1042906D0082928D107E0214B9B
:1016F000214C236027E01F4B1F4C236023E0184B35
:101700005B6803F47010164B5B6803F480320223AD
:1017100003EB904022B9194B4343174C23600DE073
:101720000F4B5B6813F4003F04D0144B4343124C3F
:10173000236003E00F4B43430F4C236003E00D4B4A
:101740000D4C236000BF00BF054B5B68C3F3031360
:101750000B4CE15C084B1B68CB40074C236010BD71
:1017600000100240002002400000FFF8FFFFF6FEDC
:1017700008ED00E000127A00C000002000093D00E2
:10178000C400002036490143364A1160704770B5E5
:10179000002100230F22C4784CB3324C246804F497
:1017A000E064C4F5E0644FEA1421C1F1040322FAB5
:1017B00001F2447804FA03F1847804EA020444EA6A
:1017C00001014FEA0111284C0678A155047804F074
:1017D0001F054FF0010404FA05F405784FEA65157A
:1017E0004FF0E02606EB8505C5F8004109E00478D6
:1017F00004F01F050124AC401C4D0678761145F815
:10180000264070BD1A4A0A4002431A4B1A607047BC
:1018100041B1194A126842EA00024FF0E023C3F8CE
:10182000102D07E0144A126822EA00024FF0E0236C
:10183000C3F8102D7047042808D14FF0E021096942
:1018400041F004014FF0E022116107E04FF0E02188
:10185000096921F004014FF0E02211617047000096
:101860000000FA050CED00E000E400E080E100E09B
:1018700080FFFF1F08ED00E010ED00E010B504460A
:10188000CA48844208D10121042000F01CFD002137
:10189000042000F018FD46E0C548844208D101212B
:1018A000082000F010FD0021082000F00CFD3AE0B7
:1018B000C048844208D10121102000F004FD00211D
:1018C000102000F000FD2EE0BB48844208D1012129
:1018D000202000F0F8FC0021202000F0F4FC22E0A1
:1018E000B648844208D10121402000F0ECFC0021E0
:1018F000402000F0E8FC16E0B148844208D1012104
:10190000802000F0E0FC0021802000F0DCFC0AE0F8
:10191000AC48844207D10121801500F0D4FC00219D
:10192000A01500F0D0FC10BD10B50121084600F054
:10193000CAFC0021012000F0C6FC10BD2DE9F041D9
:10194000024600250026002000230024002791F8ED
:1019500003C00CF00F0591F803C01CF0100F03D06A
:1019600091F802C04CEA0505B1F800C01CF0FF0F69
:1019700031D0146800202BE04FF0010C0CFA00F37A
:10198000B1F800C00CEA03069E4220D183004FF05C
:101990000F0C0CFA03F7BC4305FA03FC4CEA0404F1
:1019A00091F803C0BCF1280F06D14FF0010C0CFADE
:1019B00000FCC2F814C00AE091F803C0BCF1480F63
:1019C00005D14FF0010C0CFA00FCC2F810C0401C0D
:1019D0000828D1D31460B1F800C0BCF1FF0F34DD8A
:1019E000546800202EE000F1080C4FF0010808FABE
:1019F0000CF3B1F800C00CEA03069E4221D183002B
:101A00004FF00F0C0CFA03F7BC4305FA03FC4CEA49
:101A1000040491F803C0BCF1280F05D100F1080CB3
:101A200008FA0CF8C2F8148091F803C0BCF1480F12
:101A300007D100F1080C4FF0010808FA0CF8C2F8C1
:101A40001080401C0828CED35460BDE8F0814FF6CA
:101A5000FF710180022181700421C170704702462C
:101A6000002093680B4201D0012000E00020704765
:101A70000146886880B2704702460020D3680B4256
:101A800001D0012000E0002070470146C86880B204
:101A9000704701617047416170470AB1016100E020
:101AA00041617047C16070474FF480320A438261E0
:101AB0008161826182698269704702460020424BDF
:101AC00018684FF68073184040EA021008433E4BF6
:101AD000186070473D49C8617047F0B50A46002359
:101AE00000240021002500F00046B6F1004F02D18D
:101AF000354EF16901E0344E7168C0F3034583B29D
:101B000000F44016B6F5401F08D121F070612E4E4A
:101B1000766826F070662C4F7E6012E000F4801626
:101B2000B6F5801F06D1032606FA05F4A14341F05D
:101B3000706106E0460D360103FA06F6B14341F046
:101B4000706122B1460D360103FA06F6314300F00A
:101B50000046B6F1004F02D11B4EF16101E01A4E72
:101B60007160F0BD30B500228B071C0F0F2303FA04
:101B700004F2154B08338C1053F824309343124C65
:101B800008348D1044F8253023468C1053F8243047
:101B90008C07240F00FA04F423430B4C08348D10F7
:101BA00044F8253030BD0A490860704700080140FC
:101BB000000C0140001001400014014000180140D9
:101BC000001C0140002001400000014000002042B4
:101BD000DC00204210B50446F648844209D10121B8
:101BE000480500F07DFB00214FF4001000F078FB69
:101BF00008E00121880500F073FB00214FF480000C
:101C000000F06EFB10BD2DE9F04385B004460D4693
:101C10000026B1460427DFF8A083A6884FF6C071DE
:101C20000E40684600F0C8FADDF80880E348B8FBCB
:101C3000F0F01FFA80F946EA0906A68020884FF6E0
:101C4000FE71084020800026DD49286888420CD8B3
:101C500028684000B8FBF0F087B2042F00DA0427B0
:101C60003E4309F10100208427E0E888A0F53F41C8
:101C7000FF3906D1286800EB4000B8FBF0F087B2CE
:101C800009E0286800EBC00101EB0010B8FBF0F0A0
:101C900087B247F480473805000D01D147F00107AE
:101CA00047F4004006434FF4967009FB00F04FF4F0
:101CB0007A7190FBF1F0401C2084A683208840F0CC
:101CC0000100208026884FF6F5310E40A8886989EA
:101CD000084306432680A88929890843208105B046
:101CE000BDE8F08341F288310160002181804BF62C
:101CF000FF71C1800021018141814FF480418181C8
:101D0000704721B1028842F00102028004E002889B
:101D10004FF6FE731A400280704721B1828842F468
:101D20000062828004E082884FF2FF731A40828052
:101D3000704721B1828842F48052828004E0828818
:101D40004EF6FF731A408280704721B1028842F438
:101D50008072028004E002884FF6FF631A4002801E
:101D6000704721B1028842F40072028004E00288C8
:101D70004FF6FF531A400280704721B1028842F4A7
:101D80008062028004E002884FF6FF331A4002802E
:101D900070470A46002181894FF60173194002F00D
:101DA000FE0319438181704721B1828942F001020B
:101DB000828104E082894FF6FE731A408281704767
:101DC00021B1028842F04002028004E002884FF60E
:101DD000BF731A400280704710B51AB183880B4355
:101DE000838004E08388CC43A4B22340838010BD69
:101DF000018270470146088AC0B2704712B141F0B3
:101E0000010102E04FF6FE7319400182704702465D
:101E1000002313460B441888704721B1028842F40E
:101E20000042028003E00288C2F30E020280704783
:101E3000B1F5006F04D1028842F40062028004E030
:101E400002884FF2FF731A4002807047B1F5005FBD
:101E500004D1028842F40052028004E002884DF668
:101E6000FF731A400280704721B1028842F4805209
:101E7000028004E002884EF6FF731A400280704729
:101E8000B1F5006F04D1028842F40062028004E0E0
:101E900002884FF2FF731A400280704721B1028816
:101EA00042F02002028004E002884FF6DF731A40FD
:101EB000028070470146088B0012704721B10288EA
:101EC00042F01002028004E002884FF6EF731A40DD
:101ED0000280704721B9028842F08002028004E04B
:101EE00002884FF67F731A4002807047B1F5804F29
:101EF00005D0828B4BF6FF731A40828303E0828BFE
:101F000042F480428283704770B502460024002567
:101F100000230020958A138B1B0445EA030626F054
:101F20007F4404EA01068E4201D1012000E0002036
:101F300070BD10B501460020002300228B8A0A8B59
:101F4000120443EA020424F07F4010BD30B503467A
:101F50000020002400221A460C0F21F07F410CB112
:101F6000143201E0090C183215680D4201D001202D
:101F700000E0002030BD002221F07F42D343838265
:101F8000704730B5024600200023948801F0E065D8
:101F900004EA154321F07F41948A0C4202D00BB130
:101FA000012000E0002030BD002221F07F42D34319
:101FB000838270470054004000127A0040420F00B4
:101FC000A0860100DB48006840F00100D9490860A4
:101FD00008464068D8490840D64948600846006825
:101FE000D6490840D34908600846006820F480209C
:101FF00008600846406820F4FE0048604FF41F0067
:1020000088607047CB49096821F48031C94A116062
:102010001146096821F480211160B0F5803F03D09A
:10202000B0F5802F0ED106E0C249096841F4803135
:10203000C04A116007E0BF49096841F4A021BD4AC8
:10204000116000E000BF00BF704710B501460022DC
:10205000002300204A11012A02D1B64C236806E071
:10206000022A02D1B34C236A01E0B24C636A01F048
:102070001F02012494401C4201D0012000E00020F6
:1020800010BD70B500240025002600BF3120FFF7E9
:10209000DCFF0646641CB4F5A06F01D0002EF5D01D
:1020A0003120FFF7D2FF08B1012500E000252846C6
:1020B00070BD014600209F4A106820F0F80040EAF9
:1020C000C100106070479E490860704702460020BA
:1020D000984B586820F47C1042EA01031843954B52
:1020E0005860704796490866704701460020914A3B
:1020F000506820F003000843506070478D484068E6
:1021000000F00C007047014600208A4A506820F019
:10211000F00008435060704701460020854A50682F
:1021200020F4E06008435060704701460020814A77
:10213000506820F4605040EAC1005060704729B1F7
:102140007C4A527A02437B4B5A7206E0794A527AB1
:10215000C343DBB21A40774B5A7270477949086023
:10216000704701460020734A506820F440400843FD
:10217000506070470021744A11706E4A82F8201036
:10218000012802D0042808D103E001216E4A117011
:1021900004E005216C4A117000E000BF00BF7047E9
:1021A0006A49086070476349096A0143614A1162DC
:1021B000704767490860704730B50021002200244D
:1021C00000235C4D6D6805F00C0121B1042905D098
:1021D000082923D105E05F4D056022E05D4D0560D3
:1021E0001FE0544D6D6805F47012524D6D6805F492
:1021F0008034022505EB92421CB9574D55430560CA
:102200000BE04C4D6D6815F4003F03D0524D554323
:10221000056002E04F4D5543056002E04D4D0560FD
:1022200000BF00BF434D6D6805F0F00109094B4D3B
:102230006B5C0568DD4045603E4D6D6805F4E0610E
:10224000090A464D6B5C4568DD408560394D6D6817
:1022500005F46051C90A414D6B5C4568DD40C560BD
:10226000344D6D6805F44041890B3D4D6B5CC5688C
:10227000B5FBF3F5056130BD29B12E4A5269024321
:102280002C4B5A6104E02B4A52698243294B5A6114
:10229000704729B1274A92690243264B9A6104E0AC
:1022A000244A92698243234B9A61704729B1214A9B
:1022B000D26902431F4BDA6104E01E4AD2698243AD
:1022C0001C4BDA61704729B11A4AD2680243194B94
:1022D000DA6004E0174AD2688243164BDA6070472E
:1022E00029B1144A12690243124B1A6104E0114ADF
:1022F000126982430F4B1A6170471A490860704790
:102300000F49C86470470B49C87170470948406A53
:1023100040F0807007494862704701460020054A36
:1023200092680A4201D0012000E000207047014974
:1023300088727047001002400000FFF8FFFFF6FEB1
:1023400000004242D8004242201002408004424233
:102350003C04424200127A0000093D00D4000020F3
:10236000E40000204004424210B50446FF48844285
:1023700008D10121C014FFF7A6FF0021E014FFF7E8
:10238000A2FFC4E0B4F1804F08D101210846FFF755
:10239000A7FF00210120FFF7A3FFB8E0F448844223
:1023A00008D101210220FFF79BFF00210220FFF747
:1023B00097FFACE0EF48844208D101210420FFF7E9
:1023C0008FFF00210420FFF78BFFA0E0EA48844242
:1023D00008D101210820FFF783FF00210820FFF723
:1023E0007FFF94E0E548844208D101211020FFF7E7
:1023F00077FF00211020FFF773FF88E0E048844258
:1024000008D101212020FFF76BFF00212020FFF7DA
:1024100067FF7CE0DB48844208D101214014FFF7CC
:1024200052FF00216014FFF74EFF70E0D64884424F
:1024300009D10121C804FFF746FF00214FF4002015
:10244000FFF741FF63E0D148844209D1012108052B
:10245000FFF739FF00214FF48010FFF734FF56E0FB
:10246000CB48844209D101214805FFF72CFF002108
:102470004FF40010FFF727FF49E0C648844208D117
:1024800001214020FFF72CFF00214020FFF728FF0B
:102490003DE0C148844208D101218020FFF720FFA0
:1024A00000218020FFF71CFF31E0BC48844208D1A6
:1024B00001218015FFF714FF0021A015FFF710FF81
:1024C00025E0B748844209D101210804FFF7FBFE4B
:1024D00000214FF48030FFF7F6FE18E0B148844247
:1024E00009D101214804FFF7EEFE00214FF400302E
:1024F000FFF7E9FE0BE0AC48844208D101218804D3
:10250000FFF7E1FE00214FF48020FFF7DCFE10BD55
:1025100000220288954B98420ED09A4B98420BD0DD
:10252000B0F1804F08D0924B984205D0914B984221
:1025300002D0914B984204D14FF68F731A404B88CA
:102540001A438E4B984207D08D4B984204D04FF6D9
:10255000FF431A40CB881A4302808B8883850B88FF
:102560000385824B98420BD0864B984208D08C4B07
:10257000984205D08B4B984202D08B4B984201D1A8
:102580000B7A038601238382704770B500240022F2
:102590000023058C4FF6FE7635400584028C838837
:1025A000048B4FF68F752C40B51E2C400D882C43A4
:1025B000751E2A400D892A434D882A436B4DA84237
:1025C0000BD0704DA84208D0754DA84205D0754D6E
:1025D000A84202D0744DA84213D14FF6F7752A4095
:1025E0004D892A434FF6FB752A408D882A434FF6C2
:1025F000FF652B404FF6FF552B408D892B43CD892E
:102600002B4383800483CD888586028470BD70B59A
:10261000002400220023058C4FF6EF763540058418
:10262000028C8388048B48F6FF752C404FF6FF45DB
:102630002C400D882D0644EA15444FF6DF752A40DC
:102640000D892D0542EA15424D882D0542EA1542B5
:10265000464DA84202D04B4DA8421BD14FF67F7584
:102660002A404D892D0542EA15424FF6BF752A4092
:102670008D882D0542EA15424FF6FF352B404FF26B
:10268000FF752B408D89AD0443EA1543CD89AD0418
:1026900043EA154383800483CD880587028470BD97
:1026A00070B5002400220023058C4FF6FF663540EC
:1026B0000584028C8388848B4FF68F752C404FF6EF
:1026C000FC752C400D882C434FF6FF552A400D8990
:1026D0002D0642EA15424D882D0642EA1542234D49
:1026E000A84202D0274DA8421BD14FF2FF752A40C5
:1026F0004D892D0642EA15424FF6FF352A408D8856
:102700002D0642EA15424EF6FF752B404DF6FF7539
:102710002B408D892D0543EA1543CD892D0543EACC
:10272000154383808483CD888587028470BD70B50E
:10273000002200230024058C4EF6FF7635400584E8
:10274000038C8488828B48F6FF752A404FF6FF453C
:102750002A400D882D0642EA15424DF6FF752B40A2
:102760000D892D0743EA15434D881FE0002C0140D9
:102770000004004000080040000C00400010004031
:102780000014004000340140004C01400050014062
:102790000054014000180040001C00400020004090
:1027A0000040014000440140004801402D0743EA39
:1027B0001543F94DA84202D0F84DA84206D14BF678
:1027C000FF752C408D89AD0544EA154484808283D1
:1027D000CD88A0F84050038470BD828B4FF2FF3348
:1027E0001A408283828B0B0642EA1342828370472F
:1027F000F0B50C461546002200210026078C4EF647
:10280000FF7C07EA0C070784828B018C27073E0CAC
:1028100040F6FF473A402F0642EA17421F0742EAB6
:102820001742DD4FB8420ED0DC4FB8420BD0B0F1AA
:10283000804F08D0DA4FB84205D0DA4FB84202D004
:10284000D94FB84206D14DF6FF77394046F480574C
:10285000394305E047F6FF57394044F48057394380
:1028600082830184F0BD828B4FF6F3731A4082831A
:10287000828B0A4382837047F0B50C4615460022CE
:1028800000210026078C4FF6FF6C07EA0C0707842F
:10289000828B018C27063E0C4FF60C773A401F05C1
:1028A00045EA17473A43BC4FB8420ED0BB4FB84237
:1028B0000BD0B0F1804F08D0B94FB84205D0B94F16
:1028C000B84202D0B84FB84206D14FF6FF57394050
:1028D00046F48077394305E04FF2FF57394044F41E
:1028E0008077394382830184F0BD028B4FF2FF333E
:1028F0001A400283028B0B0642EA1342028370479E
:10290000F0B50C461546002200210026078C4FF634
:10291000EF7C07EA0C070784028B018C27053E0C2D
:1029200040F6FF473A401F0742EA17422F0642EAA5
:102930001742994FB8420ED0984FB8420BD0B0F121
:10294000804F08D0964FB84205D0964FB84202D07B
:10295000954FB84206D14FF6DF77394046F0100761
:10296000394305E04FF65F77394044F010073943AB
:1029700002830184F0BD028B4FF6F3731A40028389
:10298000028B0A4302837047F0B50C4615460022BD
:102990000021068C4FF6FE773E400684028B018CA8
:1029A0004FF60C7632401E0545EA164632437A4E03
:1029B000B0420ED0794EB0420BD0B0F1804F08D06B
:1029C000774EB04205D0774EB04202D0764EB0423C
:1029D00006D14FF6FD76314044F00106314305E063
:1029E0004FF6F576314044F001063143028301840D
:1029F000F0BD70B505460C46674885420ED0674865
:102A000085420BD0B5F1804F08D06548854205D08E
:102A10006448854202D06448854200D100E000BF8E
:102A2000208850B92389A28861882846FFF7ACFF27
:102A3000E1882846FFF79FFF25E0208804280AD177
:102A40002389A28861882846FFF75AFFE188284633
:102A5000FFF74BFF17E0208808280AD12389A288B6
:102A600061882846FFF708FFE1882846FFF7FBFE4C
:102A700009E02389A28861882846FFF7B9FEE1882A
:102A80002846FFF7AAFE70BD2DE9F04105460C4629
:102A900000260127608808B9022600E00026A088E9
:102AA000012801D1022700E001272088A0B923894D
:102AB000A28861882846FFF767FFE1882846FFF76C
:102AC0005AFF23893A4631462846FFF719FFE18825
:102AD0002846FFF70AFF13E02389A2886188284669
:102AE000FFF70EFFE1882846FFF7FFFE23893A46ED
:102AF00031462846FFF748FFE1882846FFF73BFFAD
:102B0000BDE8F0810A884B881A438B881A43CB882A
:102B10001A430B891A434B891A438B891A43A0F82D
:102B2000442070474FF6FF71818000210180C180F1
:102B30004180017270470021018041808180C18005
:102B4000018141818181C1817047002101804180E3
:102B5000012181800021C180018170470021018015
:102B600041808180C180018141818181704721B193
:102B7000028842F00102028004E002884FF6FE73F0
:102B80001A400280704789B1B0F8442042F40042F4
:102B9000A0F8442010E00000002C01400034014067
:102BA0000004004000080040000C0040B0F8442041
:102BB000C2F30E02A0F84420704710B51AB1838901
:102BC0000B43838104E08389CC43A4B223408381F7
:102BD00010BD8182704741EA0203A0F84830704777
:102BE00010B51AB183890B43838104E08389CC43F8
:102BF000A4B22340838110BD01894FF6F8721140C1
:102C0000018170470A46002101894FF68F731940F0
:102C100011430181704730B504460D4629462046D0
:102C2000FFF7F0FF208940F00700208130BD2DE93B
:102C3000F04104460D4616461F46602D06D13B4620
:102C4000012231462046FFF75BFE05E03B460122AC
:102C500031462046FFF798FE29462046FFF7D2FF6F
:102C6000208940F007002081BDE8F08130B50C4696
:102C700000210189C9B21D0642EA154525432943B1
:102C8000018130BD2DE9F04105460E4617469846B4
:102C9000002443463A4631462846FFF7E7FF2C8991
:102CA0004FF6F8710C4044F007044FF68F710C405A
:102CB00044F070042C81BDE8F081F0B504460D4667
:102CC00016461F463B46324629462046FFF7CEFFB2
:102CD000208940F480402081F0BD018582827047C8
:102CE0000A46002101884FF68F7319401143018075
:102CF0007047F0B50C4615461E4600210022002301
:102D00000189028B038C4FF6F877394021434FF647
:102D1000FC473A4040F201173A434FF6DD773B401B
:102D2000370545EA17473B43018102830384F0BD21
:102D30000A460021018B4FF68F731940114301831E
:102D400070470A460021018B48F6FF7319401306AD
:102D500041EA1341018370470A460021818B4FF6F7
:102D60008F7319401143818370470A460021818B7C
:102D700048F6FF731940130641EA134181837047F7
:102D800021B1028842F08002028004E002884FF6FE
:102D90007F731A400280704721B1828842F004029A
:102DA000828004E082884FF6FB731A40828070476D
:102DB00021B1828842F00802828004E082884FF6C6
:102DC000F7731A408280704721B1828842F0010275
:102DD000828004E082884FF6FE731A40828070473A
:102DE0000A460021018B4FF6F77319401143018306
:102DF00070470A460021018B4FF2FF7319401306FA
:102E000041EA1341018370470A460021818B4FF646
:102E1000F77319401143818370470A460021818B63
:102E20004FF2FF731940130641EA13418183704743
:102E30000A460021018B4FF6FB73194011430183B1
:102E400070470A460021018B4FF6FF3319401306E5
:102E500041EA1341018370470A460021818B4FF6F6
:102E6000FB7319401143818370470A460021818B0F
:102E70004FF6FF331940130641EA1341818370472F
:102E80000A460021018B4FF67F73194011430183DD
:102E900070470A460021018BC1F30E01130641EA77
:102EA0001341018370470A460021818B4FF67F73DF
:102EB00019401143818370470A460021818BC1F379
:102EC0000E01130641EA1341818370470A4600212F
:102ED000018C4FF6FD7319401143018470470A4677
:102EE0000021018C4FF6F77319401143018470479C
:102EF0000A460021018C4FF6DF731940130541EAA1
:102F00001341018470470A460021018C4FF67F73FC
:102F10001940130541EA1341018470470A46002114
:102F2000018C4FF6FF531940130641EA1341018407
:102F300070470A460021018C4FF2FF7319401306B7
:102F400041EA1341018470470A460021018C4DF685
:102F5000FF731940130741EA13410184704730B5EC
:102F6000002301248C40A3B2048CDD43ADB22C407D
:102F70000484048C02FA01F5ADB22C43048430BD04
:102F800030B5002304248C40A3B2048CDD43ADB2E1
:102F90002C400484048C02FA01F5ADB22C43048465
:102FA00030BD70B5034600200024184618300125B6
:102FB0008D40ACB21D8CE643B6B235401D8409B1DC
:102FC000082909D100EB6100056825F0700505604E
:102FD0000568154305600CE00D1FADB200EB650000
:102FE000056825F4E04505600568160645EA1645BE
:102FF000056070BD21B1028842F00202028004E047
:1030000002884FF6FD731A400280704721B1028892
:1030100042F00402028004E002884FF6FB731A407B
:103020000280704721B1828842F08002828004E0F1
:1030300082884FF67F731A408280704702884FF66D
:10304000F7731A40028002880A4302807047828820
:103050004FF68F731A40828082880A4382807047BD
:1030600002894FF6F8731A40028102890A430281ED
:10307000704702894FF67F731A40028102890A4322
:1030800002817047818470478185704781867047CF
:103090000187704781877047A0F840107047028809
:1030A0004FF6FF431A40028002880A4302807047AD
:1030B0000146888E70470146088F70470146888F09
:1030C00070470146B1F8400070470146888C704750
:1030D0000146088D704702460020138A0B4201D03A
:1030E000012000E000207047CA430282704730B5DB
:1030F0000246002000230024158A05EA0103958971
:1031000005EA010413B10CB1012000E0002030BD3C
:10311000CA4302827047000010B50446FC4884424E
:1031200009D101218803FFF7CEF800214FF4804038
:10313000FFF7C9F832E0F748844209D10121480479
:10314000FFF7CEF800214FF40030FFF7C9F825E073
:10315000F148844209D101218804FFF7C1F8002118
:103160004FF48020FFF7BCF818E0EC48844209D106
:103170000121C804FFF7B4F800214FF40020FFF745
:10318000AFF80BE0E648844208D101210805FFF7BB
:10319000A7F800214FF48010FFF7A2F810BD2DE929
:1031A000F04786B005460E460024A24600BFA14661
:1031B0000027B08900B100BF2F462C8A4CF6FF7063
:1031C0000440F08804432C82AC894EF6F31004408E
:1031D000B08831890843718908430443AC81AC8AC3
:1031E0004FF6FF400440B0890443AC8201A8FEF7CB
:1031F000E3FFC748874202D1DDF810A001E0DDF807
:103200000CA0A88910F4004F08D00AEBCA0000EB0C
:103210000A1031684900B0FBF1F807E00AEBCA0078
:1032200000EB0A1031688900B0FBF1F86420B8FBAC
:10323000F0F004012009642101FB1089A88910F431
:10324000004F08D0322000EBC900B0FBF1F000F0D5
:103250000700044308E0322000EB09106421B0FBB2
:10326000F1F000F00F0004432C8106B0BDE8F087B8
:103270004FF41651016000218180C18001810C2131
:10328000418100218181704710B502460020108ADB
:103290004FF2FF0318400B884C8823438C8823434C
:1032A000CC8823431843108210BD00210180418047
:1032B0008180C180704721B1828942F400528281AD
:1032C00004E082894DF6FF731A4082817047F0B5A1
:1032D00003460024002600250020A1F510676A3F60
:1032E00000D100BF1846C1F3421401F01F060127A8
:1032F00007FA06F5012C01D10C3004E0022C01D1B3
:10330000103000E014301AB107682F43076002E064
:103310000768AF430760F0BD10B51AB1838A0B434D
:10332000838204E0838ACC43A4B22340838210BD0D
:10333000028A4FF6F0731A400282028A0A4302821E
:10334000704782894FF2FF731A40828182890A4353
:103350008281704721B1828942F00202828104E0B9
:1033600082894FF6FD731A4082817047028A4FF6B8
:10337000DF731A400282028A0A430282704721B137
:10338000028A42F48042028204E0028A4BF6FF7312
:103390001A4002827047C1F30802828070470146DA
:1033A0008888C0F308007047818941F0010181815C
:1033B0007047028BD2B20283028B42EA012202835F
:1033C0007047028B02F47F420283028B0A4302831E
:1033D000704721B1828A42F02002828204E0828A10
:1033E0004FF6DF731A408282704721B1828A42F021
:1033F0001002828204E0828A4FF6EF731A408282C2
:10340000704721B1828A42F00802828204E0828AF7
:103410004FF6F7731A408282704721B1828942F4D5
:103420000042828103E08289C2F30E0282817047EA
:1034300021B1828A42F40062828204E0828A4FF2E1
:10344000FF731A4082827047828A4FF6FB731A40DC
:103450008282828A0A438282704721B1828A42F044
:103460000202828204E0828A4FF6FD731A40828251
:10347000704702460020B1F5007F00D100BF1388DD
:103480000B4201D0012000E00020704701F40072DF
:10349000B2F5007F00D100BFCA430280704770B50B
:1034A00002460024002300250020A1F510666A3E94
:1034B00000D100BFC1F3421501F01F03012606FA37
:1034C00003F3012D02D19689334006E0022D02D18B
:1034D000168A334001E0968A33400C12012606FA20
:1034E00004F41688344013B10CB1012000E0002030
:1034F00070BD10B500220023A1F510646A3C00D114
:1035000000BF0A1201249440A3B2DC43048010BD22
:10351000003801400044004000480040004C00409A
:10352000005000400648804706480047FEE7FEE797
:10353000FEE7FEE7FEE7FEE7FEE7FEE7FEE7FEE763
:103540008516000831010008F0B480EA0102D20FAC
:103550004300B3EB410F02D20346084619464B0025
:1035600042D0C30DDDB2C1F3C7542C1B202C35DA79
:10357000C1F3160141F4000502B16D42C4F1200609
:1035800005FA06F125412844B3EBD05F23D0C2B140
:10359000012CA0EBC35009DCF0BC4FF0004202EA62
:1035A000C35200F50000DBB200F022BA400000F187
:1035B000807000EBC350A0F1807040EAD1704900E8
:1035C00009E0490841EAC071A0EBC35000F50000D2
:1035D000400800EBC350F0BC00F001BA5142012397
:1035E00003EB4101801AF6E7F0BC704781F000411F
:1035F000AAE780F00040A7E780EA010210B502F0D8
:103600000042400026D04B0023D04FEA106101EB6E
:103610001361C0F35600C3F3560340F4000043F4B3
:103620000003A0FB0330A1F17F014FEA00401C041E
:1036300001D000F1010050EA134001D44000491EBE
:10364000C3B20C0604EBD010401C4008802B02D003
:1036500003E0002010BD20F00100002900DA002066
:10366000104310BD80EA010202F0004330B430F094
:10367000004221F0004015D0A0B1C0F3C755C2F3FD
:10368000C754C2F31601C0F31600651B41F40001D4
:1036900040F400007D35814201D36D1C00E04900FB
:1036A000002D02DA30BC002070474FF400020024E5
:1036B000814201D3091A144352084FEA4101F7D15C
:1036C00051B1814202D14FF0004105E002D24FF0EA
:1036D000010101E06FF0010104EBC55030BC18445A
:1036E00000F07DB92DE9FE4F81EA030421F0004589
:1036F00004F0004423F000414FF0000A009450EA27
:10370000050302D052EA010304D10020014603B0B0
:10371000BDE8F08FC1F30A53C5F30A542344A3F262
:10372000F3330193A0FB02B3C5F3130545F4801CEA
:10373000C1F3130141F480180CFB023300FB083E77
:10374000810A930A41EA8C5143EA8853A1FB03475B
:103750004FEA9C2505FB03734FEA982601FB0637C9
:103760003D05260545EA1435BBEB06016EEB050366
:10377000850E920E45EA8C1542EA8812A5FB0206D8
:10378000261E67EB00070C0D44EA0334A61947EB2D
:103790001350C1F313044FF000031946E5FB020177
:1037A0004FEA033545EA1455019B4FEA0432009C69
:1037B000A3F10C03CDE900A445EA060502932B46CC
:1037C00000F052F9A3E72DE9F04D81EA030404F07B
:1037D000004B21F0004714464FF0000A23F000414F
:1037E00050EA070220D054EA01021DD0C1F30A5565
:1037F0000246C1F31300C7F30A56C7F3130340F49C
:10380000801143F48013A6EB0508101BD64608F27E
:10381000FD3873EB010002D308F1010801E09218B2
:103820005B41B8F1000F03DA00200146BDE8F08DDE
:1038300000204FF48015064607460EE0B2EB040C5C
:1038400073EB010C04D3121B064363EB01032F43FC
:103850006D084FEA300092185B4150EA050CEDD13B
:1038600052EA030012D082EA040083EA01052843E9
:1038700003D100224FF0004308E0101B8B4102D21D
:103880000122002302E06FF0010253101AEB060040
:1038900047EB085110EB0A0041EB0B01BDE8F04D7E
:1038A00000F0D5B8C10F80EAE0700844CA0796233B
:1038B000002100F09DB896230022114600F098B830
:1038C00000F0004230F000400DD0C10D01F56071F4
:1038D00042EA01510022C0F31600520742EAD00228
:1038E00040071143704700200146704701F0004235
:1038F00030B421F0004150EA010306D00B0DA3F5CE
:103900006073C1F31301002B02DC30BC0020704750
:10391000440F44EAC104C100A01830BC00EBC350FE
:1039200000F05DB8002801DBC0F10040002901DB98
:10393000C1F1004181427047002801DBC0F1004025
:10394000002901DBC1F100418842704730B50B46C8
:10395000014600202022012409E021FA02F59D42BF
:1039600005D303FA02F5491B04FA02F52844151E93
:10397000A2F10102F1DC30BD2DE9F05F0546002027
:1039800092469B4688460646814640241DE02846CE
:1039900041464746224600F014FAB0EB0A00524670
:1039A0005B4671EB0B0110D310461946224600F01E
:1039B000F9F92D1A67EB01084F4622460120002134
:1039C00000F0F0F917EB00094E41201EA4F10104AC
:1039D000DDDC484631462A464346BDE8F09F0029D3
:1039E000A8BF7047401C490008BF20F00100704785
:1039F00010B4B0FA80FC00FA0CF050EA010404BFE5
:103A000010BC704749B1CCF1200421FA04F411FA3A
:103A10000CF118BF012121430843A3EB0C01CB1D7E
:103A20004FEA00614FEA102048BF0020BCBF10BC25
:103A3000704700EBC35010440029A4BF10BC70476E
:103A4000401C490008BF20F0010010BC704710B5B1
:103A5000002B08DA401C41F1000192185B411A4327
:103A600001D120F0010010BD2DE9FF4D934611B1A9
:103A7000B1FA81F202E0B0FA80F22032924600F010
:103A800091F9039A0746884640EA0B0011435B46CA
:103A9000084304D13846414604B0BDE8F08D1146D4
:103AA00053EA020016D0CAF14002584600F089F9E4
:103AB00004460D464FF0010658465246039900F061
:103AC00071F9084300D10026344345EAE6752743DF
:103AD00045EA08080E984FF00005A0EB0A014FEAEE
:103AE000D7200A314FEA47532A4640EA48504FEA66
:103AF000D82402D500200146CEE7281844EB015116
:103B0000DDE90C45001904B06941BDE8F04D9EE7C0
:103B10002DE9FE4F074681EA0300C00F0E460190D3
:103B200021F0004123F00044B81AA14105D23846E3
:103B3000314617461E460B46024623F0004010430E
:103B400004D13846314603B0BDE8F08F350DC5F3DA
:103B50000A00C3F30A510290401A0090402867DA25
:103B6000C3F3130040F4801B0198924620B1002358
:103B7000D2EB030A63EB0B0B00985946C0F14002ED
:103B8000504600F00FF980460C4650465946009AC0
:103B900000F027F9C0197141EF1785EA11533B4333
:103BA0003FD0019A4AB3009A012A11DC0022801A00
:103BB00061EB05514FF0004303EA0555CDE90025BF
:103BC000801841F5801142462346FFF74DFFBAE7C2
:103BD0002E050025401B61EB0601401941F58012BE
:103BE000001852412818A6F5001343EB020140EAE1
:103BF000D47018EB0808644113E064084FEA3808F1
:103C00004FF0000244EAC0744FEA0553801A61EB9A
:103C10000301801841F5801149084FEA30008018EF
:103C200059414246234603B0BDE8F04FFFF70FBFAE
:103C30000198012240000023D0EB020263EBE07305
:103C400001984FEAE074381A66EB0401EBE783F061
:103C500000435DE781F000415AE770B521F0004371
:103C600003430CD0C1F30A540026D4EB060566EBDF
:103C70000603D417AD1AA34102DB0020014670BD34
:103C8000001C41EB025170BD2DE9F04D00231A4696
:103C90001B1A8A4103DB00200146BDE8F08DC1F309
:103CA0000A52C1F3130141F480154FF0000BD10704
:103CB00002D100186D41521E002740F2FF11044648
:103CC00001EB620A3E463846B846024600204FF4F1
:103CD000801100F076F8C01971413B1846EB0102E3
:103CE000B4EB030C75EB020C04D3E41A65EB02058C
:103CF00007460E46241908F101006D41804634281C
:103D0000E3DDF81946EB06014FF0FF32001B1346C6
:103D1000A94101D3002213461BEB070046EB0A51D1
:103D2000BDE8F04DFFF793BEC1F30A52C1F3130192
:103D300040F2FF3341F480119A4202DA002001463A
:103D4000704740F233439A42A2F2334202DC5242BD
:103D500000F037B800F026B830B5002904DB4FF08A
:103D60000044404264EB0101002B04DB4FF00044AF
:103D7000524264EB0303994208BF904230BD0000F9
:103D8000064C074D06E0E06840F0010394E80700A8
:103D900098471034AC42F6D3FCF7CEF9184F000820
:103DA000384F0008202A04DB203A00FA02F10020F4
:103DB00070479140C2F1200320FA03F31943904069
:103DC0007047202A04DB203A21FA02F000217047D4
:103DD00021FA02F3D040C2F1200291400843194673
:103DE0007047202A06DBCB17203A41FA02F043EA5B
:103DF000E07306E041FA02F3D040C2F120029140A4
:103E000008431946704700000FB4054B10B503A9CD
:103E1000044A029800F03AF910BC5DF814FB000067
:103E200003030008E8000020490050EAC12018BF41
:103E300004204A0D18BF40F0010040F2FF72B2EBBF
:103E4000515F08BF40F00200012808BF05207047FD
:103E50002DE9F0414F1E00EBC7010446D1E90001F6
:103E600015461E4637F006020DD02A463346FFF7A8
:103E700039FC7F1E04EBC703D3E90023FFF748FE9C
:103E800037F00602F1D1022F25D0042F13D0062FD0
:103E900018BFBDE8F0812A463346FFF723FCD4E97A
:103EA0000A23FFF735FE2A463346FFF71BFCD4E909
:103EB0000823FFF72DFE2A463346FFF713FCD4E90B
:103EC0000623FFF725FE2A463346FFF70BFCD4E90D
:103ED0000423FFF71DFE2A463346FFF703FCD4E90F
:103EE0000223FFF715FE2A463346FFF7FBFBD4E912
:103EF0000023BDE8F041FFF70BBE0000024A00209E
:103F00001107FFF7AABE000001FDFFFF02E008C88D
:103F1000121F08C1002AFAD170477047002001E043
:103F200001C1121F002AFBD170470000014908603F
:103F300070470000EC0000202DE9FF5FDDE9021072
:103F4000020DDDF838B001430FD10F9801244AA3C8
:103F5000012807D000980F9AC0E90031C0E9024259
:103F6000BDE8FF9F6FEA0B01F4E7A2F2FF3244F6CF
:103F70001050424315140F9801280FD0A5EB0B00E9
:103F8000401C4FF000043D4EDFF8F490B0F1000A01
:103F9000A046C0F1000717DB074615E0CBF1000093
:103FA000EFE7F80707D02246334640464946FFF779
:103FB00099FB804689462246334620463146FFF724
:103FC00091FB04460E467F10002FEAD1DDE9020185
:103FD000BAF1000F42464B4602DAFFF783FB01E0DD
:103FE000FFF7F1FB04460E460022264BFFF7B4FE16
:103FF00003D84FF0FF30014607E00022224B204655
:104000003146FFF785FDFFF78FFE102409E0002CF5
:104010000ADB0A220023FFF7AFFC019B30321A555E
:10402000641E50EA0102F2D1641C019AC4F111032A
:1040300014440F9A012A07D00122084301D15B459D
:104040000DDD00226D1C0DE0084303D1A3EB0B0531
:104050006D1E09E000204FF0110B0F908BE701DA85
:1040600000226D1E002A86D000980F99C0E9023107
:10407000C0E9004574E70000300000000000244063
:104080000000F03F0000F0430000E03F2DE9FF4F4B
:1040900095B006469A460F460025F2E1252878D1CC
:1040A0000024761CFB4AA046012106943378203B6D
:1040B00001FA03F0104202D00443761CF6E7307890
:1040C0002A2811D06FF02F023078A0F13001092991
:1040D00015D8069944F0020401EB810102EB41017D
:1040E0000844761C0690EFE701CF0690002803DA1B
:1040F000404244F40054069044F00204761C3078A8
:104100002E2817D116F8010F44F004042A280ED0E7
:104110006FF02F023078A0F1300109290AD808EB9E
:10412000880102EB410100EB0108761CF2E757F829
:10413000048B761C30786C280FD006DC4C2817D006
:1041400068280DD06A2814D104E0742810D07A2889
:104150000FD10DE044F400140AE044F4801401E0AF
:1041600044F440147178814202D1761C04F5801425
:10417000761C3078864666280AD012DC582872D021
:1041800008DC80B3452803D0462801D047281AD13F
:1041900096E118E0632832D0642875D0652812D1E2
:1041A0008EE170286ED008DC67286CD069286BD04F
:1041B0006E280DD06F2806D1A9E0732828D0752865
:1041C0006FD078286ED05246179990476D1C56E1F3
:1041D000C4F30250022807D003280BD0042801CFD3
:1041E0000BD005604BE150E101CF4FEAE571C0E92A
:1041F000005144E101CF058041E105703FE101CF6D
:104200008DF8000000208DF80100EB46012003E04E
:1042100057F804BB4FF0FF3061074FF0000102D4A4
:104220000DE009F10101894641450FDA8145F8DBCE
:104230001BF809100029F4D108E009F101018946B1
:104240008142FADB1BF809100029F6D10698534683
:10425000A0EB090080462146179A00F094FA284402
:1042600000EB090505E047E01BF8010B52461799E2
:104270009047B9F10109F7D2534621464046179AB3
:10428000FAE001E03AE01BE10A21C4F302524FF0E8
:10429000000B0091022A06D001CFC117032A08D0D3
:1042A00009E022E023E0FF1D27F00707F7E80201FD
:1042B00005E000B2C117042A01D140B2C11700299C
:1042C00006DA0A460021404261EB02012D2202E09B
:1042D000220504D52B228DF80420012203E0E207F9
:1042E00001D02022F7E7914653E00A2110E0102088
:1042F0004FF0000B00900EE0102109E010204FF06D
:10430000000B44F004044FF00808009003E008217B
:104310004FF0000B0091C4F30252022A04D001CFE7
:104320000021032A06D007E0FF1D27F00707F7E862
:10433000020105E080B20021042A01D1C0B20021AF
:104340004FF00009220724D5BEF1700F2AD0009B40
:1043500083F0100353EA0B0309D150EA010206D09F
:1043600030228DF804208DF805E002229146009B52
:1043700083F0080353EA0B030BD150EA010201D189
:10438000620706D530228DF804204FF00109A8F10C
:10439000010841A2BEF1580F00D044A203920FAA17
:1043A00002920FE040228DF804200122DEE75B46F6
:1043B000009AFFF7E1FA039B9B5C029AA2F10102CB
:1043C0000292137050EA0102F1D1029807A9A1EB01
:1043D000000000F1200B600702D524F4803401E0D6
:1043E0004FF00108002041465A46D84501DDA1EBB7
:1043F000020000EB0B01009006984944A0EB01007D
:104400000690E00306D453462146179A069800F01A
:10441000BAF90544002008E001A8524610F8080047
:10442000179990476D1C08F1010080464845F3DB61
:10443000E0030CD553462146179A069800F0A3F9DD
:10444000054404E030205246179990476D1C0099AE
:10445000481E00900029F5DC08E0029802995246B7
:104460000078491C0291179990476D1CBBF100011F
:10447000ABF1010BF1DC67E100F072F9054406F1E4
:104480000106307800287FF409AE19B02846BDE84F
:10449000F08F0000092801003031323334353637CF
:1044A0003839414243444546000000003031323340
:1044B0003435363738396162636465660000000060
:1044C000600701D44FF0060807F1070727F0070738
:1044D000A0A1F7E8020C0CF000431A0007D19EA13E
:1044E000220504D49DA1E20701D1AFF2440112914B
:1044F0002CF0004C7146BEF1650F0ED007DC45294B
:104500000BD0462920D0BEF1470F3DD13DE06629B2
:104510001AD0BEF1670F37D137E000231122414690
:10452000B8F1110F00DA4A1CCDE9002302466346B8
:1045300007A902A8FFF700FD012000904FF0000B33
:1045400008F10109039868E04FF000410F91012341
:10455000CDE900830246634607A902A8FFF7ECFCF9
:10456000DDE904904FF0000B20B9039908F1010038
:1045700001EB0009B8EB090003D4C0F1FF3B08F1DF
:104580000109A9EB0800009048E04146B8F1010F8D
:1045900001DA0121884600231122B8F1110F00DC55
:1045A0000A46CDE900230246634607A902A8FFF7A1
:1045B000C3FC4FF0000BC14620070FD404994145BE
:1045C00003DA894601E0A9F10109B9F1010F05DD1E
:1045D0000299A9F10100085C3028F4D00399414503
:1045E00002DA11F1040F03DA01200F91009015E0B7
:1045F000002903DC8B44A9EB010005E0481C484579
:1046000003DD039800F1010081460399A1EB0B0043
:1046100000F1010000904FF000400F90200705D4FA
:104620000098484502DB4FF0FF30009000210F98C2
:104630000DF147088DF84710B0F1004F26D0022049
:1046400001902B2013900F9800280CDA40420F9015
:104650002D20139007E00A210F98FFF777F93031EA
:104660000F9008F8011D0199481E01900029F2DC05
:104670000F980028EFD1A8F1010213991170317839
:1046800001F0200141F0450108F8021D10A9A1EB3D
:10469000080000F1070001901298007800B1012095
:1046A00000EB0901009801EBE071019801440698C4
:1046B000A0EB0100A0F101000690E00306D45346F0
:1046C0002146179A069800F05EF805441298007883
:1046D00020B152461799904705F10105E00322D514
:1046E00053462146179A069800F04DF805441AE003
:1046F000BBF1000F07DB0499594504DD029911F85D
:104700000B00179901E01799302052469047009806
:104710006D1C401E0BF1010B009004D12E2052465F
:10472000179990476D1CB9F10001A9F10109DFDC6F
:1047300005E018F8010B5246179990476D1C019936
:10474000481E01900029F4DC53462146179A06982A
:1047500092E600002D0000002B0000002000000069
:104760002DE9F0410446002517461E46880405D46D
:1047700006E039462020B04705F10105641EF8D552
:104780002846BDE8F0812DE9F04104460025302798
:1047900090461E46C80300D42027880405D506E0AD
:1047A00041463846B04705F10105641EF8D5284654
:1047B000BDE8F0812DE9F04D914F21F0004A86B01F
:1047C00005460C46BA452FDBAAEB070028430BD061
:1047D0008C48824501DC1BD1D5B106B02846BDE826
:1047E000F04D0122FFF739BA874A884B2846FEF779
:1047F00079FF07460E46864A864B28462146FEF735
:1048000071FF06B03A463346BDE8F04DFFF780B978
:104810000120FFF78BFB06B00022BDE8F04D1346E8
:1048200010461146FEF7CFBF7B48824543DABAF106
:10483000795F0BDA2846FFF7F7FA042808BFFFF77D
:104840005DFB284606B02146BDE8F08D0B462A46A2
:1048500028462146FEF746FF834602466F480E462D
:104860000B4606217844FFF7F3FA5A463346FEF723
:1048700039FF80466A488A465A46334604217844BE
:10488000FFF7E6FA5A463346FEF72CFF00223B4676
:10489000FFF73EF902460B4640465146FEF793FFAE
:1048A0002A462346FEF71EFF06B02A462346BDE8E9
:1048B000F04DFFF72DB9284624F0004100223D4677
:1048C0003B46FFF7C7F94FF0FF32FFF7C6F9064640
:1048D000024654480F460B4606217844FFF7B8FAC3
:1048E00032463B46FEF7FEFECDE900014E48324619
:1048F0003B4604217844FFF7ABFA32463B46FEF7CD
:10490000F1FE00222B46FFF703F983460291304661
:10491000394600F061FA804644480D46504517DCA0
:10492000DDE900015A46029BFEF74DFF42462B4649
:10493000FEF7D8FE42462B46FFF7EAF80122FFF7C2
:104940008CF9314A314BFFF782F9314A314B4DE056
:104950004FF0000A0B46524640462946FFF7D8F86A
:10496000CDE9031052462B4650462946FEF7BAFEC3
:1049700032463B46FFF76EF9DDE90332FEF723FFCF
:1049800006460F46DDE900015A46029BFEF71BFF73
:1049900083460091012230463946FFF75EF91A4AF4
:1049A0001A4BFFF757F906460F46012240462946A3
:1049B000FFF753F95A46009BFEF794FE32463B46FA
:1049C000FFF745F907460E46012250462946FFF7F4
:1049D00044F90F4DDFF858802A464346FFF73AF96D
:1049E0003A463346FFF736F92A464346FFF732F98F
:1049F000002CD8BF81F0004106B0BDE8F08D00006A
:104A00000000F03F0000F07F075C143326A6913CC5
:104A1000182D4454FB21F93F0000E03FC005000081
:104A2000D60500004A050000600500003333EF3F63
:104A3000FB21E93F2DE9F84F04460D4621F00040E7
:104A400000917449884212DB7349884201DC07D126
:104A500034B120462946BDE8F84F0122FFF7FDB8E2
:104A60006E48002DCCBF6E496E49BDE8F88F6E4987
:104A7000884211DA6D498842A8BF4FF0FF366DDADF
:104A800020462946FFF7D0F9042808BFFFF736FA79
:104A900020462946BDE8F88F6549DFF898A125F042
:104AA0000045884232DA6449884219DA00263246E3
:104AB0004FF0804320462946FFF72AF807468846EC
:104AC000012220462946FFF7C8F800225346FFF787
:104AD000BEF83A464346FEF776FE04460D463DE0F4
:104AE00001260022534620462946FFF711F80746C3
:104AF00088460022534620462946FFF7A8F8434639
:104B00003A46FEF760FE04460D4627E04B498842D0
:104B10001BDADFF82C810226002243462046294674
:104B2000FEF7E0FD00225346FEF7F2FF82460F46F5
:104B30000022434620462946FFF789F852463B4665
:104B4000FEF741FE04460D4608E0032622462B46AA
:104B500000203C49FEF737FE04460D4622462B4610
:104B600020462946FEF7BEFD8B46824602460B468E
:104B7000FEF7B8FD07460246334888460B46062135
:104B80007844FFF765F952465B46FEF7ABFD824677
:104B90002E488B463A46434605217844FFF758F99C
:104BA0003A464346FEF79EFD02460B46002E50460F
:104BB00059460CDAFEF7ACFF22462B46FEF792FD73
:104BC00001B022462B46BDE8F04FFFF743B8FEF791
:104BD0009FFF22462B46FEF785FD1D4A7A4402EBD5
:104BE000C603D3E90023FFF732F822462B46FFF72E
:104BF0002EF8184A7A4402EBC603D3E90023FFF7E4
:104C000029F8009A002AB4BF81F00041BDE8F88F6E
:104C1000BDE8F88F000010440000F07F182D4454C8
:104C2000FB21F93FFB21F9BF0000DC3F0000203EE3
:104C30000000F33F0000F03F0000E63F008003402B
:104C40000000F83F0000F0BF5C0300001A03000002
:104C5000B8020000800200002DE9F04D9446CCF12E
:104C6000000423F000464CEA0404524F46EAD47490
:104C700098468A4621F00042BC4206D8454240EAA6
:104C8000050442EAD474BC4204D9BDE8F04D624642
:104C9000FEF73EBFA8F14055A5F17F6555EA0C042B
:104CA0000BD0022404EAA874434DDFF810E144EA73
:104CB000DA7452EA000B04D00CE0BDE8F04DFFF7C7
:104CC000B9BE002C14BF012CBDE8F08D022C30D0F1
:104CD000032C32D056EA0C0B0AD0BE4220D1BA4285
:104CE00009D126F0804622F080423346114617E073
:104CF00000291ADB25E0DFF8C8B0FB44002C04BF14
:104D0000DBE90001BDE8F08D012C02BFDBE9000109
:104D100081F00041BDE8F08D022C0AD0032C0CD0AC
:104D2000BA4212D1BAF1000F0BDA23482549BDE887
:104D3000F08D28462449BDE8F08D28467146BDE82F
:104D4000F08D1D482149BDE8F08D921B12153C2ABB
:104D5000C4BF19481D490EDCB8F1000FBEBF12F1E7
:104D60003C0F0020014606DB6246FEF72CFD21F0D9
:104D70000041FFF75FFE002C08BFBDE8F08D012C5D
:104D800004BF81F00041BDE8F08D114A114B022CA7
:104D900007D0FEF75CFF2A46BDE8F04D0A4BFEF750
:104DA00056BFFEF754FF2A46BDE8F04D064BFEF70E
:104DB00051BF00000000F07F182D4454FB2109C0B2
:104DC00012020000FB21F9BFFB210940FB21F93F42
:104DD000075C143326A6A13C2DE9F04106460F4698
:104DE000FEF752FF04000D4618BF0120284320F0B3
:104DF0000040C0F17F6010F1E0400ED5002E14BFDE
:104E000001200020384320F00040C0F17F6010F105
:104E1000E0405CBF0120FFF789F820462946BDE845
:104E2000F081000000000000555555555555C53F0F
:104E30007D6FEB0312D6D4BF5544880E55C1C93FD0
:104E40003B8F68B52882A4BF88B20175E0EF493F67
:104E500009F7FD0DE13D023F4B2D8A1C273A03C0A7
:104E6000C88A599CE52A004059018D1B6C06E6BF93
:104E700082922EB1C5B8B33F4FBB610567ACDD3F31
:104E8000182D4454FB21E93F9BF681D20B73EF3F71
:104E9000182D4454FB21F93FE2652F227F2B7A3CE9
:104EA000075C143326A6813CBDCBF07A8807703CA2
:104EB000075C143326A6913CC4EB98999999C9BF15
:104EC000711623FEC671BCBF6D9A74AFF2B0B3BF4A
:104ED0009AFDDE522DDEADBF2F6C6A2C44B4A2BF0A
:104EE0000D5555555555D53FFF8300922449C23F76
:104EF0006E204CC5CD45B73F513DD0A0660DB13FAA
:104F0000EB0D76244B7BA93F11DA22E33AAD903FBB
:104F10000000000000000000384F000800000020E2
:104F2000F00000000C3F000828500008F0000020AE
:104F3000100400001C3F00080000000000000000FA
:104F40000000000000000000010000000000000060
:104F50000000000000000000000000000000000051
:104F6000000000006F12833AA69B443B0000003F04
:104F70000AD7A33C010000000000803F00000000B1
:104F8000000000000000803F000000000000000062
:104F90000000000000000000000000000000000011
:104FA0000000000000000000000000000000000001
:104FB00000000000000000000000000000000000F1
:104FC00000000000000000000000000000000000E1
:104FD000000000000000803F000000000000000012
:104FE00000000000000000000000000000000000C1
:104FF000000000000000000000A24A0400000000C1
:105000000000000001020304060708090000000078
:10501000010203040102030406070809020406084A
:08502000000000000000000088
:040000050800352595
:00000001FF
