:020000040800F2
:1000000010050020C12F0008491400084B140008F7
:100010004F14000853140008571400080000000093
:100020000000000000000000000000005B14000859
:100030005D140008000000005F140008611400084F
:10004000DB2F0008DB2F0008DB2F0008DB2F000868
:10005000DB2F0008DB2F0008DB2F0008DB2F000858
:10006000DB2F0008DB2F0008DB2F0008DB2F000848
:10007000DB2F0008DB2F0008DB2F0008DB2F000838
:10008000DB2F0008DB2F0008DB2F0008DB2F000828
:10009000DB2F0008DB2F0008DB2F0008DB2F000818
:1000A000DB2F0008DB2F0008DB2F0008DB2F000808
:1000B000050A0008DB2F0008DB2F0008DB2F0008F3
:1000C000DB2F0008DB2F0008DB2F0008DB2F0008E8
:1000D000DB2F0008DB2F0008DB2F0008DB2F0008D8
:1000E000DB2F0008DB2F0008DB2F0008DB2F0008C8
:1000F000DB2F0008DB2F0008DB2F0008DB2F0008B8
:10010000DB2F0008DB2F0008DB2F0008DB2F0008A7
:10011000DB2F0008DB2F0008DB2F0008DB2F000897
:10012000DB2F0008DB2F0008DB2F0008DB2F000887
:10013000DFF80CD003F0C2FA0048004707060008B9
:1001400010050020014604E0002000E0401C50287B
:10015000FCD30A00A1F10103D9B2F5D1704770B503
:100160000446F7480470002521E0F548007810F0B7
:10017000800F05D001220421F24801F0E2FB04E0E7
:1001800000220421EF4801F0DCFB01220221ED48AE
:1001900001F0D7FBEA4800784006000EE8490870F5
:1001A00000220221E74801F0CCFB681CC5B2082DF3
:1001B000DBDB70BD10B5002423E0E1480078400689
:1001C000000EDF49087001220221DE4801F0B9FB70
:1001D0000821DC4801F097FB30B1D948007840F0A5
:1001E0000100D749087005E0D548007820F00100EB
:1001F000D349087000220221D24801F0A2FB601C02
:10020000C4B2082CD9DBCE48007810BD10B501224D
:100210001146CC4801F095FB00220221C94801F0AB
:1002200090FB00221021C74801F08BFB0022202107
:10023000C44801F086FB00224021C24801F081FB46
:1002400001220421C04801F07CFB00228021BD482E
:1002500001F077FB00220221BB4801F072FB012074
:10026000FFF770FF00220121B64801F06AFB00246D
:1002700005E0B649085DFFF772FF601CC4B20B2CA5
:10028000F7DB01221146AF4801F05BFB10BD2DE901
:10029000F84305460E4617469846ADA00068009004
:1002A0008DF800508DF801608DF802708DF8038094
:1002B00000228021A34801F044FB01220221A24830
:1002C00001F03FFB0120FFF73DFF002201219D4887
:1002D00001F037FB2020FFF742FF002405E01DF866
:1002E0000400FFF73CFF601CC4B2042CF7DB0122C2
:1002F0001146944801F025FB0120FFF723FF00225F
:100300000121904801F01DFB2220FFF728FF002467
:1003100005E09049085DFFF722FF601CC4B2042C81
:10032000F7DB01221146874801F00BFB01228021F7
:10033000844801F006FB0120FFF704FF0022802122
:10034000804801F0FEFABDE8F88310B50120FFF700
:10035000F9FE002202217C4801F0F3FA01228021FB
:10036000784801F0EEFA6420FFF7ECFE00228021CD
:10037000744801F0E6FA00220121724801F0E1FA26
:100380000120FFF7DFFE2420FFF7E9FE002405E04F
:10039000FFF710FF70490855601CC4B2042CF7DB4E
:1003A00001221146674801F0CCFA0A20FFF7CAFE85
:1003B00001228021634801F0C4FA10BD002107E04A
:1003C00042F6E06100BF0A00A1F1010399B2FAD13F
:1003D0000200A0F10100F3D1704710B5C8215F48B9
:1003E00002F0A8FDC8215D4802F0A6FDC8215B48C7
:1003F00002F0A4FDC821594802F0A2FD41F2883064
:10040000FFF7DCFF6421554802F094FD6421534856
:1004100002F092FD6421514802F090FD64214F48A2
:1004200002F08EFD4FF4FA60FFF7C8FF10BD08B56B
:100430001C208DF8000000208DF801008DF80200CE
:1004400001208DF80300684601F0F5F808BD1FB5DE
:100450000020ADF804004FF48060ADF80A00000100
:10046000ADF80C004CF25030009069463C4801F069
:100470001EFB01213A4801F098FB0121384801F0A8
:10048000D0FB1FBD00B587B040F2CF70ADF81400AF
:1004900040F2CF20ADF810000020ADF81600ADF806
:1004A000120004A92D4801F087FF6020ADF800007C
:1004B0000120ADF802000020ADF808006946274889
:1004C00001F0B7FF0821254802F0DEFB694623480A
:1004D00001F0F1FF0821214802F0DFFB69461F48C7
:1004E00002F032F808211D4802F0E2FB69461B4881
:1004F00002F071F80821194802F0E3FB00211748C7
:1005000002F089FA40F2CF70ADF8140040F2CF202B
:10051000ADF810000020ADF81600ADF8120004A9E7
:100520004FF0804001F048FF01221146900702F091
:1005300098FA00214FF0804002F06DFA07B000BD3C
:100540004C00002000080140000C01400000002089
:10055000080808080B0000200F00002000080040D9
:100560000058004008B503208DF80200F720ADF8D0
:10057000000010208DF803006946FF4801F032F9B1
:100580000820ADF8000004208DF803006946FA4801
:1005900001F028F90620ADF8000010208DF80300C6
:1005A0006946F64801F01EF94FF47070ADF800008E
:1005B00018208DF803006946F04801F013F94FF454
:1005C0004060ADF800001C208DF803006946EB4840
:1005D00001F008F908BD10B54FF47A70FFF7EEFE90
:1005E00000F0A4FF01210D2001F0A7FD012104204E
:1005F00001F0B0FD0121880501F0ACFD01210846A4
:1006000001F0A8FD10BDFFF7E6FFFFF7ABFFFFF716
:1006100039FFFFF71CFFFFF70AFFD94800F00EFB78
:10062000FFF7F4FD0121D74802F0F5F9FFF7D5FEF9
:100630000121880702F0EFF900BFFEE72DE9F04144
:1006400004460F4615461E462146CE4802F072FC6F
:100650003946CC4802F070FC2946CA4802F06EFCCC
:100660003146C84802F06CFCBDE8F08110B50020AE
:10067000C5490870FFF769FEC348007801282FD1EB
:10068000C2480078801CC1490870C1480078801CAD
:10069000BF490870BF480078801CBE490870BE483A
:1006A0000078801CBC490870B8480078C82802DD72
:1006B000C820B6490870B6480078C82802DDC820AE
:1006C000B3490870B3480078C82802DDC820B14992
:1006D0000870B1480078C82802DDC820AE4908700B
:1006E000A948007802282FD1A8480078801EA74981
:1006F0000870A7480078801EA5490870A5480078B2
:10070000801EA4490870A4480078801EA249087081
:100710009E480078642802DA64209C4908709C484E
:100720000078642802DA64209949087099480078B2
:10073000642802DA64209749087097480078642892
:1007400002DA642094490870904800789349087050
:100750008F480078924908708E4800789149087057
:100760008D4800789049087010BD2DE9F0418F4800
:100770000168002002F088FC8D4908608D480168FE
:10078000002002F081FC8C4908604FF080418B48CA
:10079000006802F07FFC804685480168404602F010
:1007A00076FC074686480168384602F01BFC064680
:1007B000002102F06FFC04467D480168814802F088
:1007C00069FC07467D4801687948006802F05CFCD6
:1007D00080464FF0804102F05DFC0646394602F04B
:1007E00001FC0546214602F0FDFB774908604FF009
:1007F00080417648006802F04DFC80466E480168F2
:10080000404602F044FC074671480168384602F051
:10081000E9FB0646002102F03DFC044666480168FB
:10082000684802F037FC074668480168624800687B
:1008300002F02AFC80464FF0804102F02BFC064675
:10084000394602F0CFFB0546214602F0CBFB614959
:1008500008605D4801686048006802F0C3FB5E49BB
:1008600008605C4801685D48006802F0BBFB5B49BA
:10087000086000215848006802F0C0FD0FD24348CC
:10088000007802F066FD054653480168284602F0EC
:10089000A9FB044602F062FD404908700EE03D48A5
:1008A000007802F056FD05464B480168284602F0E4
:1008B000EBFB044602F052FD3A490870002147481C
:1008C000006802F09BFD0FD23148007802F041FD34
:1008D000054642480168284602F084FB044602F0BF
:1008E0003DFD2F4908700EE02B48007802F031FDE5
:1008F00005463A480168284602F0C6FB044602F065
:100900002DFD294908702D4800682D4908602F48A1
:1009100000682F4908602648006828490860264872
:1009200000682A4908601D480078642802DA6420BB
:100930001A4908701A480078642802DA64201849B5
:10094000087018480078642802DA64201549087095
:1009500015480078642802DA6420134908700F48AB
:100960000078C82802DDC8200C4908700C480078BF
:10097000C82837DDC82033E000080140000C0140E2
:1009800000580040000800400F0000201300002025
:100990001400002015000020160000201700002081
:1009A00018000020190000201A0000201C00002060
:1009B0002400002020000020280000202C0000201F
:1009C00034000020CDCCCC3D3C0000203000002085
:1009D0003800002040000020440000204800002093
:1009E0003B4908703B480078C82802DDC8203949D7
:1009F000087039480078C82802DDC82036490870D8
:100A0000BDE8F0812DE9FC470121880702F0D4FA06
:100A10003B21324800F02EF9314908603D212F4832
:100A200000F028F92F4908603F212C4800F022F9F6
:100A30002D4908604321294800F01CF92B49086022
:100A40004521264800F016F9294908604721234826
:100A500000F010F9274908602348006802F070FC94
:100A600004462048006802F06BFC05461C480068FC
:100A700002F066FC06461F48006802F061FC07466B
:100A80001B48006802F05CFC80461848006802F0D1
:100A900057FC814633463A464146CDE9005400F0C2
:100AA00058FB154800681549086015480068154945
:100AB0000860FFF7DBFD0848037806480278044821
:100AC000017811480078FFF7B9FDBDE8FC87000008
:100AD00018000020190000201A00002000580040D3
:100AE0005000002054000020580000205C0000202E
:100AF0006000002064000020AC0000201C000020EA
:100B0000B0000020200000201700002070B505462E
:100B10000E4614460121284601F06BF800BF5F49DC
:100B2000284601F045F90028F9D00022D0212846B6
:100B300001F0B8F800BF5A49284601F039F90028F9
:100B4000F9D03146574801F0A7F800BF5449891C35
:100B5000284601F02DF90028F8D02146514801F02F
:100B60009BF800BF4E49891C284601F021F9002856
:100B7000F8D00121284601F048F870BD70B5044650
:100B80000D4600BF4FF40031204601F033F9002834
:100B9000F8D10121204601F02CF800BF3F49204642
:100BA00001F006F90028F9D00022D021204601F0FA
:100BB00079F800BF3A49204601F0FAF80028F9D048
:100BC0000121204600F0F1FF2946204601F064F89B
:100BD00000BF3349891C204601F0EAF80028F8D00C
:100BE0000121204601F005F800BF2C49204601F004
:100BF000DFF80028F9D00122D021204601F052F878
:100C000000BF2649491C204601F0D2F80028F8D040
:100C10000021204601F005F80121204600F0F5FFF3
:100C200000BF1E493F31204601F0C2F80028F8D02D
:100C3000204601F033F80646304670BD10B5044634
:100C400000226B212046FFF761FF07221921204671
:100C5000FFF75CFF06221A212046FFF757FF1822F4
:100C60001B212046FFF752FF01221C212046FFF7DF
:100C70004DFF10BD2DE9F04105460C4621462846A2
:100C8000FFF77CFF0646601CC1B22846FFF776FFDF
:100C9000074607EB0620BDE8F081000001000300D5
:100CA00082000700005800402DE9F04105460C463F
:100CB000FF480168204602F0E7F90746FD48016851
:100CC000384602F0E7F90646FB480168304602F074
:100CD00089F9F9490860F9484168F948006802F063
:100CE000D3F90646F5488168304602F0CDF9F5495A
:100CF0000860F248C06880F000404860EF48C06873
:100D000080F000408860F0480068C8600868E949E1
:100D1000096802F0BFF90646E8480168304602F06B
:100D200061F9E6490860E7494868E249096802F064
:100D3000B1F90646E1484168304602F053F9DF490F
:100D40004860E0498868DB49096802F0A3F9064673
:100D5000DA488168304602F045F9D8498860D949B7
:100D6000C868D449096802F095F90646D348C168B5
:100D7000304602F037F9D149C860CF4801682846AB
:100D800002F082F9D1490860D148007802F0E1FA16
:100D90000646CA480168304602F07CF9CD49086031
:100DA000CB48007802F0D5FA0646C4488168304640
:100DB00002F070F9C8490860C548007802F0C9FA25
:100DC0000746C4480168384602F064F90646C3483D
:100DD0000168304602F006F9C1490860084601681A
:100DE000BC48006802F08CF9BE490860BC48016844
:100DF000B948006802F084F9BB490860B54800684A
:100E0000BA490860B248007802F0A3FA0646AB4837
:100E10004168304602F03EF9B5490860B3480168C0
:100E2000B048006802F036F90646A448016830462A
:100E300002F02DF9A1490860AD480168A948006891
:100E400002F028F906469D484168304602F01FF935
:100E50009A494860A5480168A348006802F01AF959
:100E6000064696488168304602F011F99349886039
:100E70009F4801689C48006802F00CF906468F48BC
:100E8000C168304602F003F98C49C8608F48016898
:100E90009448006802F0FEF806468748016830462C
:100EA00002F0A0F884490860884801688E4800680C
:100EB00002F0F0F806467E480168304602F092F8EB
:100EC0007B49086008460168204602F0DDF8894940
:100ED0000860BDE8F0812DE9F04105460C467448F4
:100EE0000168204602F0D0F807467248016838468B
:100EF00002F0D0F8064680480168304602F072F8E9
:100F00007D4908606D4841686D48006802F0BCF892
:100F100006466A488168304602F0B6F869490860BA
:100F20006648C06880F0004048606448C06880F04F
:100F30000040886064480068C86008685D490968C6
:100F400002F0A8F806465D480168304602F04AF80B
:100F50005A4908605B4948685649096802F09AF89E
:100F6000064656484168304602F03CF8534948600E
:100F7000544988684F49096802F08CF806464F4882
:100F80008168304602F02EF84C4988604D49C868A7
:100F90004849096802F07EF806464848C16830466C
:100FA00002F020F84549C86053480168284602F01D
:100FB0006BF8464908604648007802F0CAF90646D0
:100FC0003E480168304602F065F8424908604048F2
:100FD000007802F0BEF9064638488168304602F0D3
:100FE00059F83D4908603A48007802F0B2F90746DE
:100FF00038480168384602F04DF80646374801681F
:10100000304601F0EFFF3649086008460168314874
:10101000006802F075F833490860314801682E48CD
:10102000006802F06DF8304908602A4800682F49CE
:1010300008602748007802F08CF906461F4841688E
:10104000304602F027F82A490860284801682548F8
:10105000006802F01FF8064618480168304602F0A2
:1010600016F816490860224801681E48006802F018
:1010700011F8064611484168304602F008F80F4959
:1010800048601A4801681848006802F003F80646EC
:101090000A488168304601F0FAFF08498860144820
:1010A00001681148006801F0F5FF0646034825E095
:1010B000B400002074000020AC0000207C00002060
:1010C00068000020000100206C000020B800002013
:1010D00078000020BC000020C0000020700000202C
:1010E000C4000020C8000020CC000020D000002058
:1010F000D40000209C000020B0000020C1683046D1
:1011000001F0C5FFC049C860C0480168C048006818
:1011100001F0C0FF0646BF480168304601F062FF9B
:10112000BC490860B9480168BB48006801F0B2FFDB
:101130000646BA480168304601F054FFB7490860D6
:1011400008460168204601F09FFFB5490860BDE8E8
:10115000F0812DE9FF4F89B08046894615469A46B1
:10116000B049504602F040F906D24FF08D4150464A
:1011700001F0C6FF06460EE0AB49504601F084FF81
:101180004FF08D41079001F0BBFF83464FF07E5139
:1011900001F07DFF0646A349169802F025F906D214
:1011A0004FF08D41169801F0ABFF07460EE09E49C7
:1011B000169801F069FF4FF08D41079001F0A0FFF4
:1011C00083464FF07E5101F062FF0746954917981C
:1011D00002F00AF906D24FF08D41179801F090FF06
:1011E000044609E09049179801F04EFF83464FF0FE
:1011F0008D4101F085FF04462146384601F080FF0D
:10120000834602F0BFF8CDE9000102F01BFB00228B
:10121000864BCDE9020101F0B3FF854A854BCDE94C
:10122000040102F01EF8CDE9060102F0C1F882497E
:1012300008602146304601F063FF834602F0A2F8C1
:10124000CDE9000102F0FEFA0022784BCDE902015F
:1012500001F096FF764A774BCDE9040102F001F8E0
:10126000CDE9060102F0A4F8744908606D495046C2
:1012700002F0BAF803D27148006870490860694901
:10128000504602F0BBF805D26C48006880F0004080
:101290006A4908606349169802F0A6F803D26648C6
:1012A0000068654908605F49169802F0A7F805D202
:1012B0006148006880F000405F490860594917980C
:1012C00002F092F85749179802F098F84FF08E41C3
:1012D000404602F089F810D2404602F053F84FF031
:1012E0006632574BCDE9040101F0BBFF81F00041AC
:1012F000CDE9060102F05CF880464FF08E41404691
:1013000002F07CF812D24F49404601F0C0FE8346FD
:1013100002F038F84FF06632494BCDE9040101F094
:10132000A0FFCDE9060102F043F880464FF08E4160
:10133000484602F059F810D2484602F023F84FF020
:1013400066323F4BCDE9040101F08BFF81F0004193
:10135000CDE9060102F02CF881464FF08E41484657
:1013600002F04CF812D24946364801F08DFE834611
:1013700002F008F84FF06632314BCDE9040101F07C
:1013800070FFCDE9060102F013F881464FF08E415F
:10139000284602F029F810D2284601F0F3FF4FF05A
:1013A0006632274BCDE9040101F05BFF81F000417B
:1013B000CDE9060101F0FCFF05464FF08E412846BD
:1013C00002F01CF812D229461E4801F05DFE834649
:1013D00001F0D8FF4FF06632194BCDE9040101F05E
:1013E00040FFCDE9060101F0E3FF05464146124802
:1013F0000068FFF770FD494610480068FFF754FC8D
:101400000DB0BDE8F08F00007C000020B800002087
:10141000C8000020B0000020CC000020B400002054
:101420009800002000F8FF4600004047008066401A
:101430001F85EB51B81E0940A4000020A800002021
:101440006666304000FF7F47704700BFFEE700BF81
:10145000FEE700BFFEE700BFFEE77047704770473A
:101460007047000000210020674A126842F4803271
:10147000654B1A6000BF644A126802F40030491CD0
:1014800010B9B1F5A06FF6D15F4A126812F4003FAF
:1014900001D0012000E00020012842D15B4A1268FF
:1014A00042F01002594B1A601A46126822F00302E9
:1014B0001A601A46126842F002021A60524A5268D2
:1014C000514B5A601A4652685A601A46526842F4A2
:1014D00080625A601A46526822F47C125A601A4698
:1014E000526842F4E8125A601A46126842F080725A
:1014F0001A6000BF444A126812F0007FFAD0424AD4
:10150000526822F00302404B5A601A46526842F079
:1015100002025A6000BF3C4A526802F00C02082ADC
:10152000F9D1704710B5FFF79DFF10BD10B53648D3
:10153000006840F0010034490860084640683449BA
:1015400008403149486008460068324908402E4941
:1015500008600846006820F480200860084640685B
:1015600020F4FE0048604FF41F008860FFF7DAFFA8
:101570004FF000602849086010BD10B50021002020
:101580000022214B5B6803F00C0121B1042906D035
:10159000082928D107E0214B214C236027E01F4B6D
:1015A0001F4C236023E0184B5B6803F47010164B4C
:1015B0005B6803F48032022303EB904022B9194B9D
:1015C0004343174C23600DE00F4B5B6813F4003F5F
:1015D00004D0144B4343124C236003E00F4B4343AE
:1015E0000F4C236003E00D4B0D4C236000BF00BF88
:1015F000054B5B68C3F303130B4CE15C084B1B68A2
:10160000CB40074C236010BD001002400020024078
:101610000000FFF8FFFFF6FE08ED00E000127A0080
:10162000D800002000093D00DC00002036490143BD
:10163000364A1160704770B5002100230F22C4782C
:101640004CB3324C246804F4E064C4F5E0644FEA1F
:101650001421C1F1040322FA01F2447804FA03F1DF
:10166000847804EA020444EA01014FEA0111284C9B
:101670000678A155047804F01F054FF0010404FA20
:1016800005F405784FEA65154FF0E02606EB850571
:10169000C5F8004109E0047804F01F050124AC40BE
:1016A0001C4D0678761145F8264070BD1A4A0A404E
:1016B00002431A4B1A60704741B1194A126842EA54
:1016C00000024FF0E023C3F8102D07E0144A12681F
:1016D00022EA00024FF0E023C3F8102D70470428DF
:1016E00008D14FF0E021096941F004014FF0E022F8
:1016F000116107E04FF0E021096921F004014FF08A
:10170000E0221161704700000000FA050CED00E0D6
:1017100000E400E080E100E080FFFF1F08ED00E052
:1017200010ED00E010B50446CA48844208D10121FA
:10173000042000F01CFD0021042000F018FD46E00C
:10174000C548844208D10121082000F010FD002185
:10175000082000F00CFD3AE0C048844208D1012185
:10176000102000F004FD0021102000F000FD2EE00C
:10177000BB48844208D10121202000F0F8FC002160
:10178000202000F0F4FC22E0B648844208D1012178
:10179000402000F0ECFC0021402000F0E8FC16E0C6
:1017A000B148844208D10121802000F0E0FC0021F2
:1017B000802000F0DCFC0AE0AC48844207D1012123
:1017C000801500F0D4FC0021A01500F0D0FC10BD65
:1017D00010B50121084600F0CAFC0021012000F0EC
:1017E000C6FC10BD2DE9F041024600250026002070
:1017F00000230024002791F803C00CF00F0591F896
:1018000003C01CF0100F03D091F802C04CEA05058C
:10181000B1F800C01CF0FF0F31D0146800202BE09D
:101820004FF0010C0CFA00F3B1F800C00CEA03060B
:101830009E4220D183004FF00F0C0CFA03F7BC43FB
:1018400005FA03FC4CEA040491F803C0BCF1280F2C
:1018500006D14FF0010C0CFA00FCC2F814C00AE0EB
:1018600091F803C0BCF1480F05D14FF0010C0CFA00
:1018700000FCC2F810C0401C0828D1D31460B1F895
:1018800000C0BCF1FF0F34DD546800202EE000F1F1
:10189000080C4FF0010808FA0CF3B1F800C00CEA8C
:1018A00003069E4221D183004FF00F0C0CFA03F780
:1018B000BC4305FA03FC4CEA040491F803C0BCF1F4
:1018C000280F05D100F1080C08FA0CF8C2F81480B2
:1018D00091F803C0BCF1480F07D100F1080C4FF09C
:1018E000010808FA0CF8C2F81080401C0828CED372
:1018F0005460BDE8F0814FF6FF71018002218170D4
:101900000421C17070470246002093680B4201D049
:10191000012000E0002070470146886880B27047CF
:1019200002460020D3680B4201D0012000E00020D5
:1019300070470146C86880B27047016170474161D5
:1019400070470AB1016100E041617047C1607047B2
:101950004FF480320A4382618161826182698269C7
:10196000704702460020424B18684FF680731840BB
:1019700040EA021008433E4B186070473D49C86179
:101980007047F0B50A46002300240021002500F02E
:101990000046B6F1004F02D1354EF16901E0344EF8
:1019A0007168C0F3034583B200F44016B6F5401FDA
:1019B00008D121F070612E4E766826F070662C4FAB
:1019C0007E6012E000F48016B6F5801F06D1032673
:1019D00006FA05F4A14341F0706106E0460D3601B8
:1019E00003FA06F6B14341F0706122B1460D3601AB
:1019F00003FA06F6314300F00046B6F1004F02D17B
:101A00001B4EF16101E01A4E7160F0BD30B500224D
:101A10008B071C0F0F2303FA04F2154B08338C10AD
:101A200053F824309343124C08348D1044F8253079
:101A300023468C1053F824308C07240F00FA04F44A
:101A400023430B4C08348D1044F8253030BD0A492F
:101A50000860704700080140000C01400010014080
:101A60000014014000180140001C0140002001400A
:101A70000000014000002042DC00204210B5044676
:101A8000F648844209D10121480500F07DFB002180
:101A90004FF4001000F078FB08E00121880500F009
:101AA00073FB00214FF4800000F06EFB10BD2DE9A8
:101AB000F04385B004460D460026B1460427DFF802
:101AC000A083A6884FF6C0710E40684600F0C8FAA1
:101AD000DDF80880E348B8FBF0F01FFA80F946EA29
:101AE0000906A68020884FF6FE7108402080002657
:101AF000DD49286888420CD828684000B8FBF0F01F
:101B000087B2042F00DA04273E4309F10100208444
:101B100027E0E888A0F53F41FF3906D1286800EBAF
:101B20004000B8FBF0F087B209E0286800EBC00184
:101B300001EB0010B8FBF0F087B247F4804738059E
:101B4000000D01D147F0010747F4004006434FF470
:101B5000967009FB00F04FF47A7190FBF1F0401C95
:101B60002084A683208840F00100208026884FF63C
:101B7000F5310E40A8886989084306432680A88964
:101B800029890843208105B0BDE8F08341F28831FE
:101B90000160002181804BF6FF71C180002101812D
:101BA00041814FF480418181704721B1028842F028
:101BB0000102028004E002884FF6FE731A400280A0
:101BC000704721B1828842F40062828004E08288FA
:101BD0004FF2FF731A408280704721B1828842F42D
:101BE0008052828004E082884EF6FF731A40828021
:101BF000704721B1028842F48072028004E00288BA
:101C00004FF6FF631A400280704721B1028842F408
:101C10000072028004E002884FF6FF531A400280EF
:101C2000704721B1028842F48062028004E0028899
:101C30004FF6FF331A40028070470A46002181891F
:101C40004FF60173194002F0FE031943818170477A
:101C500021B1828942F00102828104E082894FF63B
:101C6000FE731A408281704721B1028842F040021F
:101C7000028004E002884FF6BF731A40028070476A
:101C800010B51AB183880B43838004E08388CC436A
:101C9000A4B22340838010BD018270470146088AA8
:101CA000C0B2704712B141F0010102E04FF6FE737D
:101CB0001940018270470246002313460B441888DE
:101CC000704721B1028842F40042028003E002889A
:101CD000C2F30E0202807047B1F5006F04D1028892
:101CE00042F40062028004E002884FF2FF731A405F
:101CF00002807047B1F5005F04D1028842F40052BF
:101D0000028004E002884DF6FF731A40028070479B
:101D100021B1028842F48052028004E002884EF62B
:101D2000FF731A4002807047B1F5006F04D102883A
:101D300042F40062028004E002884FF2FF731A400E
:101D40000280704721B1028842F02002028004E044
:101D500002884FF6DF731A40028070470146088BF5
:101D60000012704721B1028842F01002028004E0A4
:101D700002884FF6EF731A400280704721B902883B
:101D800042F08002028004E002884FF67F731A401E
:101D900002807047B1F5804F05D0828B4BF6FF7300
:101DA0001A40828303E0828B42F480428283704730
:101DB00070B502460024002500230020958A138B6D
:101DC0001B0445EA030626F07F4404EA01068E421E
:101DD00001D1012000E0002070BD10B501460020B7
:101DE000002300228B8A0A8B120443EA020424F0A7
:101DF0007F4010BD30B503460020002400221A4663
:101E00000C0F21F07F410CB1143201E0090C1832A3
:101E100015680D4201D0012000E0002030BD0022F5
:101E200021F07F42D3438382704730B502460020C1
:101E30000023948801F0E06504EA154321F07F4116
:101E4000948A0C4202D00BB1012000E0002030BD8A
:101E5000002221F07F42D343838270470054004028
:101E600000127A0040420F00A0860100DB480068A3
:101E700040F00100D949086008464068D849084048
:101E8000D649486008460068D6490840D3490860EA
:101E90000846006820F4802008600846406820F466
:101EA000FE0048604FF41F0088607047CB49096806
:101EB00021F48031C94A11601146096821F480215A
:101EC0001160B0F5803F03D0B0F5802F0ED106E051
:101ED000C249096841F48031C04A116007E0BF4936
:101EE000096841F4A021BD4A116000E000BF00BFB5
:101EF000704710B501460022002300204A11012A34
:101F000002D1B64C236806E0022A02D1B34C236A00
:101F100001E0B24C636A01F01F02012494401C42AC
:101F200001D0012000E0002010BD70B50024002584
:101F3000002600BF3120FFF7DCFF0646641CB4F525
:101F4000A06F01D0002EF5D03120FFF7D2FF08B1ED
:101F5000012500E00025284670BD014600209F4A6B
:101F6000106820F0F80040EAC100106070479E49F8
:101F70000860704702460020984B586820F47C1097
:101F800042EA01031843954B58607047964908662A
:101F9000704701460020914A506820F00300084332
:101FA000506070478D48406800F00C007047014653
:101FB00000208A4A506820F0F000084350607047C3
:101FC00001460020854A506820F4E06008435060D4
:101FD000704701460020814A506820F4605040EA72
:101FE000C1005060704729B17C4A527A02437B4B52
:101FF0005A7206E0794A527AC343DBB21A40774BF1
:102000005A72704779490860704701460020734A48
:10201000506820F440400843506070470021744AE3
:1020200011706E4A82F82010012802D0042808D1CD
:1020300003E001216E4A117004E005216C4A117021
:1020400000E000BF00BF70476A49086070476349FD
:10205000096A0143614A1162704767490860704725
:1020600030B500210022002400235C4D6D6805F08E
:102070000C0121B1042905D0082923D105E05F4DC9
:10208000056022E05D4D05601FE0544D6D6805F46C
:102090007012524D6D6805F48034022505EB9242B2
:1020A0001CB9574D554305600BE04C4D6D6815F458
:1020B000003F03D0524D5543056002E04F4D55435C
:1020C000056002E04D4D056000BF00BF434D6D68E7
:1020D00005F0F00109094B4D6B5C0568DD4045607A
:1020E0003E4D6D6805F4E061090A464D6B5C45683C
:1020F000DD408560394D6D6805F46051C90A414D78
:102100006B5C4568DD40C560344D6D6805F4404149
:10211000890B3D4D6B5CC568B5FBF3F5056130BDC2
:1021200029B12E4A526902432C4B5A6104E02B4AD2
:1021300052698243294B5A61704729B1274A9269F3
:102140000243264B9A6104E0244A92698243234B5E
:102150009A61704729B1214AD26902431F4BDA6163
:1021600004E01E4AD26982431C4BDA61704729B1F0
:102170001A4AD2680243194BDA6004E0174AD2685F
:102180008243164BDA60704729B1144A1269024340
:10219000124B1A6104E0114A126982430F4B1A6113
:1021A00070471A49086070470F49C86470470B4967
:1021B000C87170470948406A40F08070074948621A
:1021C000704701460020054A92680A4201D001206A
:1021D00000E00020704701498872704700100240FB
:1021E0000000FFF8FFFFF6FE00004242D800424226
:1021F00020100240800442423C04424200127A0015
:1022000000093D00EC000020FC0000204004424298
:1022100010B50446FF48844208D10121C014FFF7DD
:10222000A6FF0021E014FFF7A2FFC4E0B4F1804F45
:1022300008D101210846FFF7A7FF00210120FFF781
:10224000A3FFB8E0F448844208D101210220FFF73F
:102250009BFF00210220FFF797FFACE0EF4884428C
:1022600008D101210420FFF78FFF00210420FFF790
:102270008BFFA0E0EA48844208D101210820FFF743
:1022800083FF00210820FFF77FFF94E0E5488442A8
:1022900008D101211020FFF777FF00211020FFF760
:1022A00073FF88E0E048844208D101212020FFF735
:1022B0006BFF00212020FFF767FF7CE0DB488442B2
:1022C00008D101214014FFF752FF00216014FFF7ED
:1022D0004EFF70E0D648844209D10121C804FFF7BF
:1022E00046FF00214FF40020FFF741FF63E0D14893
:1022F000844209D101210805FFF739FF00214FF47D
:102300008010FFF734FF56E0CB48844209D1012109
:102310004805FFF72CFF00214FF40010FFF727FFBF
:1023200049E0C648844208D101214020FFF72CFF34
:1023300000214020FFF728FF3DE0C148844208D13A
:1023400001218020FFF720FF00218020FFF71CFFE4
:1023500031E0BC48844208D101218015FFF714FF09
:102360000021A015FFF710FF25E0B748844209D1EE
:1023700001210804FFF7FBFE00214FF48030FFF736
:10238000F6FE18E0B148844209D101214804FFF764
:10239000EEFE00214FF40030FFF7E9FE0BE0AC4801
:1023A000844208D101218804FFF7E1FE00214FF4A7
:1023B0008020FFF7DCFE10BD00220288954B98427A
:1023C0000ED09A4B98420BD0B0F1804F08D0924B70
:1023D000984205D0914B984202D0914B984204D13B
:1023E0004FF68F731A404B881A438E4B984207D092
:1023F0008D4B984204D04FF6FF431A40CB881A43C6
:1024000002808B8883850B880385824B98420BD092
:10241000864B984208D08C4B984205D08B4B984203
:1024200002D08B4B984201D10B7A03860123838221
:10243000704770B5002400220023058C4FF6FE760D
:1024400035400584028C8388048B4FF68F752C40B1
:10245000B51E2C400D882C43751E2A400D892A4339
:102460004D882A436B4DA8420BD0704DA84208D02E
:10247000754DA84205D0754DA84202D0744DA842B2
:1024800013D14FF6F7752A404D892A434FF6FB7555
:102490002A408D882A434FF6FF652B404FF6FF55A3
:1024A0002B408D892B43CD892B4383800483CD889A
:1024B0008586028470BD70B5002400220023058C3F
:1024C0004FF6EF7635400584028C8388048B48F6FE
:1024D000FF752C404FF6FF452C400D882D0644EA31
:1024E00015444FF6DF752A400D892D0542EA154245
:1024F0004D882D0542EA1542464DA84202D04B4D6B
:10250000A8421BD14FF67F752A404D892D0542EA1E
:1025100015424FF6BF752A408D882D0542EA1542B7
:102520004FF6FF352B404FF2FF752B408D89AD04E0
:1025300043EA1543CD89AD0443EA15438380048300
:10254000CD880587028470BD70B500240022002369
:10255000058C4FF6FF6635400584028C8388848B9A
:102560004FF68F752C404FF6FC752C400D882C4390
:102570004FF6FF552A400D892D0642EA15424D8837
:102580002D0642EA1542234DA84202D0274DA8420B
:102590001BD14FF2FF752A404D892D0642EA1542A4
:1025A0004FF6FF352A408D882D0642EA15424EF639
:1025B000FF752B404DF6FF752B408D892D0543EAA5
:1025C0001543CD892D0543EA154383808483CD8847
:1025D0008587028470BD70B5002200230024058C1D
:1025E0004EF6FF7635400584038C8488828B48F64E
:1025F000FF752A404FF6FF452A400D882D0642EA16
:1026000015424DF6FF752B400D892D0743EA154302
:102610004D881FE0002C01400004004000080040ED
:10262000000C004000100040001400400034014045
:10263000004C01400050014000540140001800408F
:10264000001C0040002000400040014000440140C8
:10265000004801402D0743EA1543F94DA84202D036
:10266000F84DA84206D14BF6FF752C408D89AD057B
:1026700044EA154484808283CD88A0F840500384C6
:1026800070BD828B4FF2FF331A408283828B0B0620
:1026900042EA134282837047F0B50C461546002289
:1026A00000210026078C4EF6FF7C07EA0C07078402
:1026B000828B018C27073E0C40F6FF473A402F06DD
:1026C00042EA17421F0742EA1742DD4FB8420ED0D6
:1026D000DC4FB8420BD0B0F1804F08D0DA4FB8428F
:1026E00005D0DA4FB84202D0D94FB84206D14DF6E4
:1026F000FF77394046F48057394305E047F6FF57E6
:10270000394044F48057394382830184F0BD828B81
:102710004FF6F3731A408283828B0A438283704799
:10272000F0B50C461546002200210026078C4FF616
:10273000FF6C07EA0C070784828B018C27063E0C8E
:102740004FF60C773A401F0545EA17473A43BC4F0E
:10275000B8420ED0BB4FB8420BD0B0F1804F08D07A
:10276000B94FB84205D0B94FB84202D0B84FB842BD
:1027700006D14FF6FF57394046F48077394305E0DC
:102780004FF2FF57394044F4807739438283018404
:10279000F0BD028B4FF2FF331A400283028B0B060F
:1027A00042EA134202837047F0B50C4615460022F8
:1027B00000210026078C4FF6EF7C07EA0C07078400
:1027C000028B018C27053E0C40F6FF473A401F075D
:1027D00042EA17422F0642EA1742994FB8420ED0FA
:1027E000984FB8420BD0B0F1804F08D0964FB84206
:1027F00005D0964FB84202D0954FB84206D14FF659
:10280000DF77394046F01007394305E04FF65F7730
:10281000394044F01007394302830184F0BD028B34
:102820004FF6F3731A400283028B0A430283704708
:10283000F0B50C46154600220021068C4FF6FE77B7
:102840003E400684028B018C4FF60C7632401E050A
:1028500045EA164632437A4EB0420ED0794EB04227
:102860000BD0B0F1804F08D0774EB04205D0774EF4
:10287000B04202D0764EB04206D14FF6FD763140DE
:1028800044F00106314305E04FF6F576314044F05F
:102890000106314302830184F0BD70B505460C4644
:1028A000674885420ED0674885420BD0B5F1804F0E
:1028B00008D06548854205D06448854202D0644806
:1028C000854200D100E000BF208850B92389A2884A
:1028D00061882846FFF7ACFFE1882846FFF79FFF95
:1028E00025E0208804280AD12389A2886188284607
:1028F000FFF75AFFE1882846FFF74BFF17E02088D3
:1029000008280AD12389A28861882846FFF708FF92
:10291000E1882846FFF7FBFE09E02389A288618849
:102920002846FFF7B9FEE1882846FFF7AAFE70BDEA
:102930002DE9F04105460C4600260127608808B9BC
:10294000022600E00026A088012801D1022700E02D
:1029500001272088A0B92389A28861882846FFF72B
:1029600067FFE1882846FFF75AFF23893A46314638
:102970002846FFF719FFE1882846FFF70AFF13E012
:102980002389A28861882846FFF70EFFE188284640
:10299000FFF7FFFE23893A4631462846FFF748FFF6
:1029A000E1882846FFF73BFFBDE8F0810A884B88A5
:1029B0001A438B881A43CB881A430B891A434B89D5
:1029C0001A438B891A43A0F8442070474FF6FF71D1
:1029D000818000210180C180418001727047002107
:1029E000018041808180C180018141818181C181DB
:1029F0007047002101804180012181800021C18038
:102A0000018170470021018041808180C180018166
:102A100041818181704721B1028842F00102028028
:102A200004E002884FF6FE731A400280704789B1B5
:102A3000B0F8442042F40042A0F8442010E0000026
:102A4000002C014000340140000400400008004018
:102A5000000C0040B0F84420C2F30E02A0F844205D
:102A6000704710B51AB183890B43838104E08389D1
:102A7000CC43A4B22340838110BD8182704741EAD8
:102A80000203A0F84830704710B51AB183890B4390
:102A9000838104E08389CC43A4B22340838110BDA9
:102AA00001894FF6F8721140018170470A460021F2
:102AB00001894FF68F73194011430181704730B57A
:102AC00004460D4629462046FFF7F0FF208940F0D6
:102AD0000700208130BD2DE9F04104460D46164621
:102AE0001F46602D06D13B46012231462046FFF7A6
:102AF0005BFE05E03B46012231462046FFF798FE8B
:102B000029462046FFF7D2FF208940F007002081A8
:102B1000BDE8F08130B50C4600210189C9B21D061F
:102B200042EA154525432943018130BD2DE9F04195
:102B300005460E4617469846002443463A46314617
:102B40002846FFF7E7FF2C894FF6F8710C4044F058
:102B500007044FF68F710C4044F070042C81BDE8DF
:102B6000F081F0B504460D4616461F463B463246F8
:102B700029462046FFF7CEFF208940F4804020817F
:102B8000F0BD0185828270470A46002101884FF618
:102B90008F731940114301807047F0B50C461546FC
:102BA0001E460021002200230189028B038C4FF670
:102BB000F877394021434FF6FC473A4040F201177D
:102BC0003A434FF6DD773B40370545EA17473B432D
:102BD000018102830384F0BD0A460021018B4FF678
:102BE0008F7319401143018370470A460021018BFE
:102BF00048F6FF731940130641EA134101837047F9
:102C00000A460021818B4FF68F731940114381834F
:102C100070470A460021818B48F6FF73194013065E
:102C200041EA13418183704721B1028842F080025A
:102C3000028004E002884FF67F731A4002807047DA
:102C400021B1828842F00402828004E082884FF63B
:102C5000FB731A408280704721B1828842F00802DB
:102C6000828004E082884FF6F7731A4082807047B2
:102C700021B1828842F00102828004E082884FF60E
:102C8000FE731A40828070470A460021018B4FF67E
:102C9000F77319401143018370470A460021018BE5
:102CA0004FF2FF731940130641EA13410183704745
:102CB0000A460021818B4FF6F77319401143818337
:102CC00070470A460021818B4FF2FF7319401306AB
:102CD00041EA1341818370470A460021018B4FF678
:102CE000FB7319401143018370470A460021018B91
:102CF0004FF6FF331940130641EA13410183704731
:102D00000A460021818B4FF6FB73194011438183E2
:102D100070470A460021818B4FF6FF331940130696
:102D200041EA1341818370470A460021018B4FF627
:102D30007F7319401143018370470A460021018BBC
:102D4000C1F30E01130641EA1341018370470A469D
:102D50000021818B4FF67F731940114381837047A7
:102D60000A460021818BC1F30E01130641EA13418B
:102D7000818370470A460021018C4FF6FD7319408C
:102D80001143018470470A460021018C4FF6F77306
:102D900019401143018470470A460021018C4FF607
:102DA000DF731940130541EA1341018470470A4655
:102DB0000021018C4FF67F731940130541EA13413E
:102DC000018470470A460021018C4FF6FF531940D9
:102DD000130641EA1341018470470A460021018C21
:102DE0004FF2FF731940130641EA13410184704703
:102DF0000A460021018C4DF6FF731940130741EA82
:102E000013410184704730B5002301248C40A3B2E4
:102E1000048CDD43ADB22C400484048C02FA01F52D
:102E2000ADB22C43048430BD30B5002304248C4063
:102E3000A3B2048CDD43ADB22C400484048C02FAAE
:102E400001F5ADB22C43048430BD70B503460020BB
:102E500000241846183001258D40ACB21D8CE64385
:102E6000B6B235401D8409B1082909D100EB6100D3
:102E7000056825F0700505600568154305600CE0E0
:102E80000D1FADB200EB6500056825F4E045056057
:102E90000568160645EA1645056070BD21B1028831
:102EA00042F00202028004E002884FF6FD731A40ED
:102EB0000280704721B1028842F00402028004E0DF
:102EC00002884FF6FB731A400280704721B1828856
:102ED00042F08002828004E082884FF67F731A40BD
:102EE0008280704702884FF6F7731A40028002888A
:102EF0000A430280704782884FF68F731A4082809F
:102F000082880A438280704702894FF6F8731A401C
:102F1000028102890A430281704702894FF67F735A
:102F20001A40028102890A430281704781847047F6
:102F30008185704781867047018770478187704718
:102F4000A0F84010704702884FF6FF431A400280F5
:102F500002880A43028070470146888E7047014606
:102F6000088F70470146888F70470146B1F84000CE
:102F700070470146888C70470146088D70470246AD
:102F80000020138A0B4201D0012000E0002070478E
:102F9000CA430282704730B5024600200023002455
:102FA000158A05EA0103958905EA010413B10CB1FC
:102FB000012000E0002030BDCA43028270470000BB
:102FC0000648804706480047FEE7FEE7FEE7FEE7C3
:102FD000FEE7FEE7FEE7FEE7FEE7FEE72D15000849
:102FE00031010008F0B480EA0102D20F4300B3EBD4
:102FF000410F02D20346084619464B0042D0C30D8A
:10300000DDB2C1F3C7542C1B202C35DAC1F31601F5
:1030100041F4000502B16D42C4F1200605FA06F143
:1030200025412844B3EBD05F23D0C2B1012CA0EBE3
:10303000C35009DCF0BC4FF0004202EAC35200F575
:103040000000DBB200F0EDB9400000F1807000EB51
:10305000C350A0F1807040EAD170490009E04908EE
:1030600041EAC071A0EBC35000F50000400800EB3E
:10307000C350F0BC00F0CCB95142012303EB410135
:10308000801AF6E7F0BC704781F00041AAE780F0B3
:103090000040A7E780EA010210B502F000424000BC
:1030A00026D04B0023D04FEA106101EB1361C0F32F
:1030B0005600C3F3560340F4000043F40003A0FBA2
:1030C0000330A1F17F014FEA00401C0401D000F160
:1030D000010050EA134001D44000491EC3B20C065F
:1030E00004EBD010401C4008802B02D003E00020ED
:1030F00010BD20F00100002900DA0020104310BDAF
:1031000080EA010202F0004330B430F0004221F0C6
:10311000004015D0A0B1C0F3C755C2F3C754C2F3E5
:103120001601C0F31600651B41F4000140F40000D5
:103130007D35814201D36D1C00E04900002D02DA8B
:1031400030BC002070474FF400020024814201D3BC
:10315000091A144352084FEA4101F7D151B1814293
:1031600002D14FF0004105E002D24FF0010101E031
:103170006FF0010104EBC55030BC184400F048B9B1
:103180002DE9FE4F81EA030421F0004504F00044DC
:1031900023F000414FF0000A009450EA050302D0EA
:1031A00052EA010304D10020014603B0BDE8F08FCC
:1031B000C1F30A53C5F30A542344A3F2F333019332
:1031C000A0FB02B3C5F3130545F4801CC1F3130142
:1031D00041F480180CFB023300FB083E810A930A7D
:1031E00041EA8C5143EA8853A1FB03474FEA9C25EF
:1031F00005FB03734FEA982601FB06373D052605BC
:1032000045EA1435BBEB06016EEB0503850E920E05
:1032100045EA8C1542EA8812A5FB0206261E67EBDA
:1032200000070C0D44EA0334A61947EB1350C1F311
:1032300013044FF000031946E5FB02014FEA033582
:1032400045EA1455019B4FEA0432009CA3F10C039C
:10325000CDE900A445EA060502932B4600F01DF9CE
:10326000A3E72DE9F04D81EA030404F0004B21F0BF
:10327000004714464FF0000A23F0004150EA0702CD
:1032800020D054EA01021DD0C1F30A550246C1F311
:103290001300C7F30A56C7F3130340F4801143F435
:1032A0008013A6EB0508101BD64608F2FD3873EB19
:1032B000010002D308F1010801E092185B41B8F166
:1032C000000F03DA00200146BDE8F08D00204FF426
:1032D0008015064607460EE0B2EB040C73EB010CBA
:1032E00004D3121B064363EB01032F436D084FEA1F
:1032F000300092185B4150EA050CEDD152EA030010
:1033000012D082EA040083EA0105284303D1002297
:103310004FF0004308E0101B8B4102D20122002332
:1033200002E06FF0010253101AEB060047EB085160
:1033300010EB0A0041EB0B01BDE8F04D00F0A0B826
:10334000C10F80EAE0700844CA079623002100F00C
:1033500068B896230022114600F063B820F00040C0
:10336000C10DC0F3160040F400007F2901DA0020EF
:103370007047962903DCC1F19601C8407047963921
:103380008840704700F0004230F000400DD0C10D81
:1033900001F5607142EA01510022C0F316005207A4
:1033A00042EAD002400711437047002001467047AF
:1033B00001F0004230B421F0004150EA010306D090
:1033C0000B0DA3F56073C1F31301002B02DC30BCBD
:1033D00000207047440F44EAC104C100A01830BC6B
:1033E00000EBC35000F014B8002801DBC0F100402E
:1033F000002901DBC1F1004181427047002801DB57
:10340000C0F10040002901DBC1F100418842704752
:103410000029A8BF7047401C490008BF20F00100E8
:10342000704710B4B0FA80FC00FA0CF050EA0104C6
:1034300004BF10BC704749B1CCF1200421FA04F458
:1034400011FA0CF118BF012121430843A3EB0C0131
:10345000CB1D4FEA00614FEA102048BF0020BCBFDF
:1034600010BC704700EBC35010440029A4BF10BC2F
:103470007047401C490008BF20F0010010BC704795
:1034800010B5002B08DA401C41F1000192185B4195
:103490001A4301D120F0010010BD2DE9FF4D9346E4
:1034A00011B1B1FA81F202E0B0FA80F22032924614
:1034B00000F016F9039A0746884640EA0B001143CC
:1034C0005B46084304D13846414604B0BDE8F08D60
:1034D000114653EA020016D0CAF14002584600F0E5
:1034E0000EF904460D464FF0010658465246039920
:1034F00000F0F6F8084300D10026344345EAE675AB
:10350000274345EA08080E984FF00005A0EB0A0192
:103510004FEAD7200A314FEA47532A4640EA48503B
:103520004FEAD82402D500200146CEE7281844EB04
:103530000151DDE90C45001904B06941BDE8F04DC9
:103540009EE72DE9FE4F074681EA0300C00F0E46B5
:10355000019021F0004123F00044B81AA14105D2A6
:103560003846314617461E460B46024623F00040B9
:10357000104304D13846314603B0BDE8F08F350D15
:10358000C5F30A00C3F30A510290401A0090402884
:1035900067DAC3F3130040F4801B0198924620B110
:1035A0000023D2EB030A63EB0B0B00985946C0F1E2
:1035B0004002504600F094F880460C46504659466A
:1035C000009A00F0ACF8C0197141EF1785EA115369
:1035D0003B433FD0019A4AB3009A012A11DC0022F2
:1035E000801A61EB05514FF0004303EA0555CDE920
:1035F0000025801841F5801142462346FFF74DFF14
:10360000BAE72E050025401B61EB0601401941F584
:103610008012001852412818A6F5001343EB02014E
:1036200040EAD47018EB0808644113E064084FEADC
:1036300038084FF0000244EAC0744FEA0553801A7C
:1036400061EB0301801841F5801149084FEA300011
:10365000801859414246234603B0BDE8F04FFFF7BA
:103660000FBF0198012240000023D0EB020263EB60
:10367000E07301984FEAE074381A66EB0401EBE757
:1036800083F000435DE781F000415AE770B521F017
:10369000004303430CD0C1F30A540026D4EB0605C3
:1036A00066EB0603D417AD1AA34102DB00200146E6
:1036B00070BD001C41EB025170BD0000064C074D6F
:1036C00006E0E06840F0010394E8070098471034F2
:1036D000AC42F6D3FCF730FD003B0008203B00086D
:1036E000202A04DB203A00FA02F1002070479140C2
:1036F000C2F1200320FA03F3194390407047202AB7
:1037000004DB203A21FA02F00021704721FA02F38B
:10371000D040C2F120029140084319467047202A48
:1037200006DBCB17203A41FA02F043EAE07306E0E9
:1037300041FA02F3D040C2F12002914008431946F9
:103740007047490050EAC12018BF04204A0D18BF35
:1037500040F0010040F2FF72B2EB515F08BF40F051
:103760000200012808BF052070472DE9F0414F1ED7
:1037700000EBC7010446D1E9000115461E4637F0AB
:1037800006020DD02A463346FFF7FAFC7F1E04EBF3
:10379000C703D3E90023FFF7D4FE37F00602F1D1C7
:1037A000022F25D0042F13D0062F18BFBDE8F081BB
:1037B0002A463346FFF7E4FCD4E90A23FFF7C1FEAB
:1037C0002A463346FFF7DCFCD4E90823FFF7B9FEAD
:1037D0002A463346FFF7D4FCD4E90623FFF7B1FEAF
:1037E0002A463346FFF7CCFCD4E90423FFF7A9FEB1
:1037F0002A463346FFF7C4FCD4E90223FFF7A1FEB3
:103800002A463346FFF7BCFCD4E90023BDE8F0416B
:10381000FFF797BE024A00201107FFF737BF0000ED
:1038200001FDFFFF02E008C8121F08C1002AFAD1FB
:1038300070477047002001E001C1121F002AFBD130
:10384000704700002DE9F84F04460D4621F0004076
:1038500000917449884212DB7349884201DC07D128
:1038600034B120462946BDE8F84F0122FFF70EBFCC
:103870006E48002DCCBF6E496E49BDE8F88F6E4989
:10388000884211DA6D498842A8BF4FF0FF366DDAE1
:1038900020462946FFF755FF042808BFFFF7BAFF67
:1038A00020462946BDE8F88F6549DFF898A125F044
:1038B0000045884232DA6449884219DA00263246E5
:1038C0004FF0804320462946FFF73BFE07468846D7
:1038D000012220462946FFF7D9FE00225346FFF772
:1038E000CFFE3A464346FFF7BCFC04460D463DE09A
:1038F00001260022534620462946FFF722FE0746AE
:1039000088460022534620462946FFF7B9FE434623
:103910003A46FFF7A6FC04460D4627E04B4988428D
:103920001BDADFF82C810226002243462046294676
:10393000FFF726FC00225346FFF703FE82460F46A0
:103940000022434620462946FFF79AFE52463B4650
:10395000FFF787FC04460D4608E0032622462B4667
:1039600000203C49FFF77DFC04460D4622462B46CD
:1039700020462946FFF704FC8B46824602460B464A
:10398000FFF7FEFB07460246334888460B460621F2
:103990007844FFF7EAFE52465B46FFF7F1FB8246AA
:1039A0002E488B463A46434605217844FFF7DDFE14
:1039B0003A464346FFF7E4FB02460B46002E5046CC
:1039C00059460CDAFFF7BDFD22462B46FFF7D8FB20
:1039D00001B022462B46BDE8F04FFFF754BEFFF77B
:1039E000B0FD22462B46FFF7CBFB1D4A7A4402EB83
:1039F000C603D3E90023FFF743FE22462B46FFF719
:103A00003FFE184A7A4402EBC603D3E90023FFF7CE
:103A10003AFE009A002AB4BF81F00041BDE8F88F59
:103A2000BDE8F88F000010440000F07F182D4454CA
:103A3000FB21F93FFB21F9BF0000DC3F0000203EE5
:103A40000000F33F0000F03F0000E63F008003402D
:103A50000000F83F0000F0BF3C010000FA00000049
:103A600098000000600000004FBB610567ACDD3FBF
:103A7000182D4454FB21E93F9BF681D20B73EF3F95
:103A8000182D4454FB21F93FE2652F227F2B7A3C0D
:103A9000075C143326A6813CBDCBF07A8807703CC6
:103AA000075C143326A6913CC4EB98999999C9BF39
:103AB000711623FEC671BCBF6D9A74AFF2B0B3BF6E
:103AC0009AFDDE522DDEADBF2F6C6A2C44B4A2BF2E
:103AD0000D5555555555D53FFF8300922449C23F9A
:103AE0006E204CC5CD45B73F513DD0A0660DB13FCE
:103AF000EB0D76244B7BA93F11DA22E33AAD903FE0
:103B0000203B0008000000200001000024380008CD
:103B1000203C000800010020100400003438000898
:103B2000004C0C4404041122334458112233440045
:103B300000000064646464000000000000000000F5
:103B40000000000000000000000000000000000075
:103B50000000000000000000000000000000000065
:103B60000000000000000000000000000000000055
:103B70000000000000000000000000000000000045
:103B800000000000000000006F12833AA69B443B37
:103B90000000003F0AD7A33C010000000000803F66
:103BA00000000000000000000000803F0000000056
:103BB0000000000000000000000000000000000005
:103BC00000000000000000000000000000000000F5
:103BD00000000000000000000000000000000000E5
:103BE00000000000000000000000000000000000D5
:103BF000000000000000000000A24A0400000000D5
:103C0000000000000102030406070809000000008C
:103C1000010203040102030406070809020406085E
:0400000508002FC1FF
:00000001FF
